:020000040800F2
:10000000B0080020750100088D270008251E000893
:1000100000000000000000000000000000000000E0
:10002000000000000000000000000000C1290008DE
:1000300000000000000000008F270008C32900080E
:100040008701000800000000870100088701000800
:1000500087010008870100086F0400088701000875
:1000600000000000870100088701000887010008E0
:1000700087010008870100088701000800000000D0
:100080008701000800000000000000008701000850
:1000900000000000870100088701000887010008B0
:1000A0008701000887010008870100088701000810
:1000B00087010008000000000000000000000000B0
:1000C00000F002F800F046F80CA030C808382418F8
:1000D0002D18671EA246AB4654465D46AC4201D180
:1000E00000F038F87E460F3EB6460FCC012633426C
:1000F00000D0FB1A3343A246AB46184790300000AD
:10010000B0300000103A02D378C878C1FAD852074C
:1001100001D330C830C101D504680C6070470000BD
:100120000023002400250026103A01D378C1FBD813
:10013000520700D330C100D50B60704710B5642959
:1001400002D100F07DF810BD002010BD1FB51FBD0D
:1001500010B510BD00F05CF91146FFF7F7FF02F093
:1001600039FE00F074F903B4FFF7F2FF03BC00F0AE
:1001700077F900000748804707480047FEE7FEE799
:10018000FEE7FEE7FEE7FEE704480549054A064BA1
:10019000704700005B2A0008C1000008B002002080
:1001A000B0080020B0040020B00400200FB41CB53B
:1001B000074B06AA7B4469460090059800F0F7F8C3
:1001C0000020694600F006F91CBC08BC04B01847C2
:1001D0001D020000F8B50E460446002020622046AD
:1001E000E1688847002829D0252802D06268A168E4
:1001F00020E0E16820460027884705001ED02846F9
:100200004138192802D80127FF02203532462046FE
:1002100027602946FFF792FF002808D0012804D064
:10022000F61DF608F6000836D9E7361DD7E76268EE
:100230002846A1689047206A401CCFE7206AF8BD95
:10024000F7B5002575291068009914A611D0C0468D
:10025000C046002802DA404211A608E00099096869
:100260008A0701D50FA602E0490704D50EA601258D
:1002700001E0C046C046009F0024243704E000F09F
:10028000AEF830313955641C0028F8D12B4632467F
:100290002146009800F02DF8FEBD0000000000008F
:1002A0002D0000002B0000002000000001E004C031
:1002B000091F0429FBD28B0701D50280801CC907C6
:1002C00000D00270704700290BD0C30702D0027023
:1002D000401C491E022904D3830702D50280801CDA
:1002E000891EE3E70022EEE70022DFE77047704750
:1002F0007047FFB504460D4681B024300090216858
:10030000880604D51022E0699143216000E00120B5
:10031000A84201DD471B00E000270498A1697A1973
:100320001018081AA0612078C00602D42046C046E2
:10033000C046002608E003986268A168805D904787
:10034000206A401C761C206204988642F3DB2078E9
:10035000C0060AD52046C046C04606E06268A168CD
:1003600030209047206A401C206238467F1E0028BB
:10037000F4DC07E000986268A168405D9047206A5D
:10038000401C206228466D1E0028F3DC2046C04633
:10039000C0462078000602D5022005B0F0BD01203D
:1003A000FBE7000001694A1C02610878704700B54C
:1003B0008FB0029100210591054901937944039181
:1003C000114604906846FFF705FF0FB000BD00001E
:1003D000E5FFFFFF0A681070521C0A607047014673
:1003E0008008081A02091018020A1018020C1018C6
:1003F000C008820012185200891A01E0401C0A3914
:100400000A29FBD270470000004870471000002006
:100410007546FFF7F9FFAE46050069465346C0082A
:10042000C000854618B020B5FFF7AEFE60BCB646EA
:1004300000260027C0C5C0C5C0C5C0C5C0C5C0C551
:10044000C0C5C0C5403D490849008D46704710B53C
:100450000446C046C0462046FFF785FE10BD00009A
:1004600001491820ABBEFEE726000200704780B5A8
:10047000042000F017F880BDEFF3108072B6FEE79D
:10048000B0B5044600F01CF90546601C02D0F648E1
:100490000078041900F014F9401BA042FAD3B0BD53
:1004A00070470000B0B50446074D2868204203D0CD
:1004B0002C60204600F00AF86868204203D06C6087
:1004C0002046FFF7EDFFB0BD0C18024010B5042820
:1004D00009D1054C204608300449802201F06FFE06
:1004E00060600120207010BD70000020E401002039
:1004F000F0B58CB00B916A4A904201D0052200E021
:10050000032200920B990F68002F00D1C6E001234F
:10051000002635460293099608960A9013E03A435E
:10052000614802600A980B9A17683A46DA40361D0D
:1005300008355B1C0999891C09910899491C089187
:10054000002A00D1AAE0591E029C07918C40274046
:10055000E9D0069505960B9A516803260D4635405D
:100560006A1E012A04911BD8032209998A400A981D
:10057000806890430B9EF6688E4006430A9886601A
:100580000498C006C00F079988400A9E7668A64363
:1005900006430A984660D4430A98089949000BE03C
:1005A000324609998A40D443032D05D10999039114
:1005B0003546059E049923E0C268019422400B9CB5
:1005C000A4688C401443C460022D039115D11C20F3
:1005D000059E30400F2282400799CC08A4000A9D56
:1005E0002C19256A95430B990A6982402A43226295
:1005F0000A98496803250D4001E0059E0499019C75
:10060000039A9540026822402A4302608A03920FAF
:10061000069D88D0182028400F2585400322079981
:1006200091430A9A1F4C6618346EAC436036052518
:100630002D07AA4208D0874DAA4207D01B4DAA42D7
:10064000009D04D1022502E0002500E0012585403F
:1006500025433560134802680B984068C40201D5F1
:100660003A4300E0BA43059E069D0E4C2260626844
:10067000840201D53A4300E0BA430A4C62600A4A58
:100680005268840301D53A4300E0BA43064C6260E5
:100690002268C00300D542E7BA4341E70CB0F0BD81
:1006A000000C005000180240801802400008005062
:1006B000002A02D0182281507047282281507047AA
:1006C0006A4800687047C046B0B502464120135CD6
:1006D0000220202B19D1134640331C78012C14D052
:1006E00024205870106802680124A243026022038B
:1006F00005689543056002680A430260016821436A
:1007000001600020187020215970B0BDB0B50246BC
:100710004120135C0220202B19D1134640331C7852
:10072000012C14D024205870106802680124A243C0
:1007300002600F22120205689543090229430160F5
:100740000168214301600020187020215970B0BD5C
:10075000F0B581B0002822D00446054640356878BF
:10076000002804D100202870204600F045F82420FD
:1007700068702068026801218A4302600F22120615
:100780006368934303618368194A13408360A368D5
:10079000E668012E06D1CE03334383600AE00120D0
:1007A00001B0F0BD2127BF023B438360022E01D17F
:1007B000CB02436043680F4E1E434660C36813403C
:1007C000C360226963691343A26912021A43C260BB
:1007D000E269236A1343036002680A43026000204F
:1007E0006064202169702063A87001B0F0BDC0462C
:1007F000FF7FFFFF0080000210B586B0006813493C
:10080000884201D006B010BD114C20680221084377
:100810002060206808400090062005900020049089
:100820000390122002900320800201900098094852
:1008300001A9FFF75DFE01208005A1680143A160C9
:10084000A16801400091009806B010BD005800401A
:1008500034100240000400502048007803490A6820
:10086000101808607047C04600000020AC0200204D
:1008700010B50124200208490A6802430A600320D7
:1008800000F00CF8002801D0204610BD00F028F838
:100890000024204610BDC0460020024070B50F4E17
:1008A00031780124002916D005467D20C00002F0D1
:1008B0002DFB01464948006802F028FB01F0E8F8EA
:1008C000032D08D8002806D10024E04329462246FB
:1008D00000F028F87560204670BDC046000000207A
:1008E00082B00948416801221143416041681140CA
:1008F00001910199110702680A43026000680840EB
:100900000090009802B070473C100240002805D4C7
:100910001F21084001218140014801607047C04605
:1009200000E100E0002805D40322034693430C4A6B
:100930009A1806E00F220240083A03239A43074B15
:10094000D2188007C00E8901C9B28140FF238340BD
:1009500010689843084310607047C0461CED00E0E3
:1009600000E400E0F0B581B0032569021A4E32467A
:10097000143A13688B43034313600124610200227D
:10098000884226D1F34801683068400521D500929D
:10099000A70206204843124902F0B8FA201A02289A
:1009A00016D0316839420FD0012811D03168394250
:1009B0000AD000280CD03168394205D0001D032828
:1009C00006D031683942EAD1009A104601B0F0BD34
:1009D0002A46104601B0F0BD147000400800002007
:1009E00040420F00F0B587B081788907584F01D495
:1009F000002650E00590012319073A46203A106876
:100A00000840049006D11068084310601068084040
:100A1000069006980292039101931E024D4C2068A5
:100A200030432060FFF74CFE0546206830420AD173
:100A3000FFF746FE401B0228F7D9032605980499C4
:100A4000002923D027E0032005460102386808402A
:100A500011D00599496988420BD038680199090479
:100A60003A680A433A603A688A433A603A49084029
:100A70003860C0075AD13A68374802400598416942
:100A80001143396000260499002904D1029B19689A
:100A9000039A914319600568E90705D1A9060DD4A9
:100AA00001216A0416D42BE0394608390A68032369
:100AB0009A43436813430B60A906F1D50321090348
:100AC0003A46083A13688B43816819431160012143
:100AD0006A0415D53A46083A1368204C23400C4660
:100AE00031460669334313601C4A521C96420E4637
:100AF000214605D10A043B46503B1C6814431C6048
:100B00002A0510D58D03032292033B46083B1C683F
:100B10009443C26814431C60AA4204D10804503FA5
:100B2000396801433960304607B0F0BDFFF7C8FDB2
:100B30000646864C386880079DD4FFF7C1FD801BB0
:100B4000A042F7D905982E46049900299ED0A2E725
:100B50005C10024000700040FFFCFFFFFFFFFF3F02
:100B6000F0B583B00D46012100281BD00191029001
:100B70007548006807242040A84216D272490868C8
:100B8000A04328430860714EFFF79AFD07466E4860
:100B900000682040A84208D0FFF792FDC01BB04279
:100BA000F5D90321084603B0F0BD029E30688107E5
:100BB000924B0CD5410703D521031A680A431A60EA
:100BC0000F2109021A688A43B16811431960C007EE
:100BD0001BD15D4800682040A8422CD95A490868BA
:100BE000A04328430860594FFFF76AFD0646564860
:100BF00000682040A8421ED0FFF762FD801BB8426B
:100C0000F5D90321084603B0F0BD029840680328D7
:100C10005DD8810001A251588F46C0462D0C0008B6
:100C2000D30C0008DD0C0008E70C00081946083951
:100C30000968490559E0029A107840076F4B05D5BD
:100C4000200319688143D06808431860186880063B
:100C5000400F22D01A6838210A406948082A23D058
:100C60001A680A40102A5ED1596803220A40032AF2
:100C700000D0644859684906490F491C02F046F9FA
:100C80005E4949684904490E48435C494968490F2F
:100C9000491C02F03BF9594B06E018460838006839
:100CA0008004410F5748C840196889093C220A400E
:100CB000274989581F220A40D0402F4908602648FA
:100CC0000068FFF7EBFD0146084603B0F0BD596D23
:100CD0000AE0194608390968890306E01946083907
:100CE0000968890101E0996D8907019900D459E7E4
:100CF0001968A14301431960144FFFF7E1FC064650
:100D00003E4800683821014002984068C000814296
:100D100000D15EE7FFF7D4FC801BB842F0D9032175
:100D2000084603B0F0BD18680840202802D1012011
:100D3000C003B9E718680840182801D00020B3E7BD
:100D40007D200002B0E7C04600200240881300006A
:100D50000431000808000020040000200648006854
:100D600026490968890A1C220A40044989581F2219
:100D70000A40D0407047C0460800002044310008B7
:100D800010B51E4C20688006400F06D0226838211E
:100D90000A401B48082A07D110BD083C206880047F
:100DA000410F1848C84010BD22680A40102A15D1CA
:100DB000616803220A40032A00D01248616849068C
:100DC000490F491C02F0A2F861684904490E4843E2
:100DD0006168490F491C02F099F810BD206808406D
:100DE000202802D10120C00310BD20680840182827
:100DF00001D0002010BD7D20000210BD081002406F
:100E000000127A000024F400F0B587B00125002814
:100E100000D1ECE1049505900078C007F94F2AD085
:100E2000B868F96803252A468A4338210140102012
:100E30004840821850425041082914D0002812D14D
:100E400005984268012001048A4208D005231B044A
:100E50009A4200D0DAE082043B6813433B603A6870
:100E60000A433A60DBE03868800304D5059840689F
:100E7000002800D173E105980078800723D40598F5
:100E8000007800070CD5B86838210140182971D1C5
:100E9000386E800704D505988069002800D15EE18E
:100EA000059A1078400700D42EE1B8683821014037
:100EB000202974D1F86D800700D425E190680028BE
:100EC00000D021E14BE1B9683820084010214140B1
:100ED000FA6803252A4002235340CA18514251415F
:100EE000002820D000291ED13868059AD168002931
:100EF00000D1A2E00721C90288431169014339608A
:100F0000012001023A680A433A608402FFF7D8FBE5
:100F100006463868204200D0A1E0FFF7D1FB801BD5
:100F20000228F6D963E139684905059B03D5D968DC
:100F3000002900D113E17F2109027A688A435969A7
:100F400009021143796000280DD10720C0023968D9
:100F5000814318690843386038688004400FAA4903
:100F6000C140AA480160AA480068FFF797FC002822
:100F700085D0F4E0386E05998969002979D001217E
:100F800008433866FFF79CFB0646386E800787D417
:100F9000FFF796FB801B03250228F6D927E10120E5
:100FA00003900107F86B0840029006D1F86B0843E4
:100FB000F863F86B08400690069801919548006820
:100FC000C00513D4039804029249086820430860BE
:100FD000FFF776FB06468F480068204206D1FFF7F0
:100FE0006FFB801B03250228F5D900E10598806876
:100FF000894C012805D005285AD1F86D04210143F8
:10100000F965F86D03990843F8655BE03B688B432D
:101010003B6081043B688B433B60002A3AD0440428
:10102000FFF74EFB06463868204200D023E7FFF763
:1010300047FB801B6428F6D9D9E001210A029043BE
:1010400038608C02FFF73CFB06463868204200D12E
:1010500015E7FFF735FB801B0228F6D9C7E07F2094
:10106000000279688143059840690002084378606E
:1010700005E7012188433866FFF722FB0646386EF4
:10108000800700D40CE7FFF71BFB801B0325022819
:10109000F5D9ACE04404FFF713FB0646386820425C
:1010A00000D1E8E6FFF70CFB801B6428F6D99EE030
:1010B000F96D039A9143F965F96D04229143F9653D
:1010C00000280CD0FFF7FCFA0646F86D800713D411
:1010D000FFF7F6FA801B0325A042F6D987E0FFF759
:1010E000EFFA0646F86D800706D5FFF7E9FA801B90
:1010F0000325A042F6D97AE002980028059A03D188
:10110000F86B01998843F863D469002C76D0B868ED
:1011100038210140102926D1012C20D0F868032164
:101120000140059B1A6A914219D1702101405A6A07
:10113000914214D17F21090201409A6A1202914220
:101140000DD11F2149040140DA6A9142049D4ED11C
:10115000072149070840196B884248D14EE0049D99
:10116000284607B0F0BD0125290638680491884358
:101170003860FFF7A5FA0646022C0BD103956C06E2
:101180003868204211D0FFF79BFA801B0325022804
:10119000F6D92CE06C06386820422BD0FFF790FA85
:1011A000801B03250228F6D921E0F8681C4901407C
:1011B000059E20366DCE0843104319020143294392
:1011C0003143F96038680499084338600398000790
:1011D000F9680143F960FFF773FA06463868204260
:1011E0000CD1FFF76DFA801B03250228F6D928469B
:1011F00007B0F0BDF86809490140F96000252846AC
:1012000007B0F0BD001002400024F40008000020E8
:10121000040000200070004088130000FCFFFEEF77
:101220008C80C11F5D21405C70470000F0B585B027
:1012300000280CD0044605465C3541208600606AD3
:10124000002807D0002020612046143007E001204C
:1012500005B0F0BD6068B04203D020461C300021CC
:1012600001600027A7626878002804D10020287058
:10127000204600F059F8022004950190687020681B
:1012800001684022914303900160E168254A0125ED
:1012900091422A4600D33A461203ED020D430F272E
:1012A00038020290854201D00025A5626568A768D2
:1012B000354021239B023B405B192569019805407D
:1012C0001D436069012318402843FC36A7693E404E
:1012D0000643E069382505403543206A80260640EC
:1012E0002E435803A56A05403543039E3560380CEC
:1012F00004250540029801400A432A43606A1021F0
:1013000001401143606B082202400A437260D80218
:10131000F1698143F1610020206604994B7005B0AA
:10132000F0BDC0460107000080B586B000681249D4
:10133000884201D006B080BD012001030F4AD36866
:101340000B43D360D3680B400193019911680143AB
:1013500011601168014000910020059004900390F5
:1013600002200290E020019005200007009901A9C9
:10137000FFF7BEF806B080BD0030014034100240D7
:10138000F0B587B017460E460546412081002C4631
:1013900044346868884203D1A868002800D185E0F9
:1013A000207E012802D1022007B0F0BD03A88AC028
:1013B00001272776FFF784F90690607E012873D114
:1013C000002E3846059900D1E1E00029384600D1C9
:1013D000DDE0029704206076002028666180E887BF
:1013E0002E642180A887A863E86428650721090284
:1013F000EA68012305918A421E4600D90646360353
:101400001F0328684168B94389194160D903AB6853
:101410008B4208D10168402399430160012189036F
:1014200003688B43036001684906049E039F03D44D
:10143000016840230B4303600599491C8A4240D24E
:10144000618800296ED0711C1BD08168C90706D144
:10145000FFF736F90699401AB04209D39CE0007BA9
:10146000296C0870286C401C28646088401E6080CD
:101470006088002856D028688168C907E8D0EEE760
:1014800028688168C90702D1FFF71AF908E0007BD4
:10149000296C0870286C401C28646088401E60809D
:1014A00060880028ECD13DE0022070E004206076E6
:1014B00000932846314632463B4600F079F907B0A2
:1014C000F0BD618800292DD0711C1AD08168C90730
:1014D00006D1FFF7F5F80699401AB04208D35BE051
:1014E000296CC0680880881C28646088401E608061
:1014F0006088002816D028688168C907E9D0EFE71E
:1015000028688168C90702D1FFF7DAF807E0296C7B
:10151000C0680880881C28646088401E60806088DD
:101520000028EDD16868B8420CD1A8680121CA032F
:10153000904202D08902884204D128680168402282
:101540009143016028463146069A01F0D1F90028FE
:1015500005D0286E202108432866296613E06868B4
:10156000B84210D1A8680121CA03904202D0890272
:10157000884208D10320410228463246069B01F0EA
:1015800007F90028E5D1286E411E8841029F0021FD
:101590002176677607B0F0BD0320F7E7F0B587B096
:1015A00004465C20205C012803D10227384607B09E
:1015B000F0BD1546059103932746443701263E7634
:1015C000FFF77EF839460290787E012877D105989A
:1015D00000283746324600D1E1E0002D174600D101
:1015E000DDE0049203274F7600202066E587A5877B
:1015F000059AA26320640880E06420650191009050
:10160000488020680121CA03A368934207D1026879
:1016100040239A430260890302680A43026001681A
:101620004906039E03D4016840220A4302606168B0
:101630004A424A416B1E594259411143E2685B4B91
:101640009A423FD3002907D0059A1188C160911CA6
:10165000A163E18F491EE187E18F0029029D70D0CF
:10166000711C1AD08168890706D4FFF729F8049AFB
:10167000401BB04208D34DE0A16B0A88C260881CB1
:10168000A063E08F401EE087E08F002859D02068DB
:1016900081688907E9D5EFE720688168890702D466
:1016A000FFF70EF807E0A16B0A88C260881CA063F0
:1016B000E08F401EE087E08F0028EDD141E0022757
:1016C00032466CE0002908D0059909780173A06BB7
:1016D000401CA063E08F401EE087E08F0028029D41
:1016E0002FD0701C0CD11CE0A16B09780173A06B8A
:1016F000401CA063E08F401EE087E08F002820D0D0
:10170000206881688907EFD4FEF7DAFF049A401B4E
:10171000B042F2D3019942E0FEF7D2FFE08F0028F9
:101720000FD0206881688907F6D5A16B097801730D
:10173000A06B401CA063E08F401EE087E08F002874
:10174000EFD12F460325E902204632463B4601F001
:101750001FF800280ED1204631463A4601F0C8F85D
:10176000002807D16902204632463B4601F010F8B6
:10177000002804D0206E2021084320662166A0683E
:10178000002807D1009806902068C16806918068FB
:1017900006900698276E781E87410199049A0020CA
:1017A00008764A76384607B0F0BDC046010700000B
:1017B000F0B585B004465C20205C012802D10220EF
:1017C00005B0F0BD1D46029203912746443701261D
:1017D0003E76FEF775FF32460646797E012900D037
:1017E000ABE003980028104600D148E10298002899
:1017F000104600D143E1002D104600D13FE1019297
:10180000787E042801D005207876002323667D8029
:10181000E587E1689D4A012000919142024600D38C
:101820001A46049616030103206842688A439119F8
:101830004160029921643D800399A163E3642365BB
:10184000A5870168490603D4016840220A43026063
:101850000A9E61684A424A41691E4B424B4113430A
:1018600000998A4A914279D3002B07D0039A1188B4
:10187000C160901CA063E08F401EE0870125701CB2
:1018800032D101E0FEF71CFFE08F002803D17888F9
:10189000002800D1CFE02068816889070DD5E18F4D
:1018A00000290AD0012D08D1A16B0A88C260891CC9
:1018B000A163E18F491EE18700258168C907E1D056
:1018C00079880029DED0216CC0680880881C2064DB
:1018D0007888401E78800125D4E7FEF7F1FE049950
:1018E000401AB04200D3C8E0E08F002803D17888C6
:1018F000002800D19FE02068816889070DD5E18F1D
:1019000000290AD0012D08D1A16B0A88C260891C68
:10191000A163E18F491EE18700258168C907DCD0FA
:1019200079880029D9D0216CC0680880881C20647F
:101930007888401E78800125CFE7019241208200FF
:1019400063680220934200D098E0A268002A00D089
:1019500094E00429019A00D143E790E0002B08D0DD
:10196000039909780173A06B401CA063E08F401EAF
:10197000E0870125701C33D101E0FEF7A1FEE08F66
:10198000002802D17888002855D02068816889070E
:101990000FD5E18F00290CD0012D0AD1A16B097858
:1019A0000173A06B401CA063E08F401EE08720689D
:1019B00000258168C907E0D079880029DDD0007B47
:1019C000216C0870206C401C20647888401E788050
:1019D0000125D2E7FEF774FE0499401AB0424CD2BA
:1019E000E08F002802D17888002824D02068816800
:1019F00089070FD5E18F00290CD0012D0AD1A16BE9
:101A000009780173A06B401CA063E08F401EE08743
:101A1000206800258168C907DCD079880029D9D0E1
:101A2000007B216C0870206C401C20647888401E6C
:101A300078800125CEE703200390C102204632467C
:101A4000049D2B4600F0A4FE00280FD1204631460D
:101A50002A4600F04DFF002808D103984102204695
:101A600032462B4600F094FE00280DD0206E202137
:101A7000084320662166012000E00320019A00212E
:101A800039767A7605B0F0BD0020F7E7010700004F
:101A9000401E010E01D0012070470749074A5060DF
:101AA000074803680B40032189075918016000208B
:101AB0009060072111607047FFFFFF0010E000E019
:101AC00020ED00E0B0B58021415C012901D1022068
:101AD000B0BD024680322421516001680B680C6859
:101AE0000125AC430C606C07A3430B6000214166E9
:101AF0001170202050600846B0BD0000F0B581B0E4
:101B00008022825C012A02D1022001B0F0BD05468C
:101B100068352422EA610668376832680124A243E6
:101B2000326007225206B36893430B43B360406EA2
:101B30000028204615D00097B768B068400F2B49A1
:101B4000095C2B4A105CC00001F0E0F90446380142
:101B5000009F400F2549095C254A105CC00001F038
:101B6000D5F928806C803760002028762021E96133
:101B700001B0F0BDF0B581B08022825C012A02D1B3
:101B8000022001B0F0BD054668352422EA610668EE
:101B9000376832680124A243326007225207B368D3
:101BA00093430B43B360406E0028204615D0009746
:101BB000B768B068400F0D49095C0D4A105CC00061
:101BC00001F0A4F904463801009F400F0749095C61
:101BD000074A105CC00001F099F928806C803760DA
:101BE000002028762021E96101B0F0BD8431000891
:101BF0007C310008F0B583B0002841D00446074688
:101C000080377868002804D100203870204600F022
:101C100057F824207860206801680125A9430160F5
:101C2000204600F085FF012827D0A06A002802D0B6
:101C3000204600F013FF0920C00221684A68824351
:101C40004A6088682A2290438860086801263043E9
:101C500008600025FD60FEF733FD0346206801683B
:101C6000090713D5154800907105002220460293FC
:101C700001F014F8002807D00325284603B0F0BD72
:101C80000125284603B0F0BD2068029B006840078C
:101C90000CD50A480090B1050022204600F0FEFF56
:101CA000002803D00325284603B0F0BD202078602B
:101CB000B8603D70E566284603B0F0BDFFFFFF0148
:101CC00080B586B000681349884201D006B080BD57
:101CD0001148C268012105918B031A43C260C26892
:101CE0001A400092009A02680A43026000680840A5
:101CF00000900020049003900220029003204002F4
:101D0000019005200007009901A9FEF7F1FB06B03C
:101D100080BDC0460038014034100240F0B587B0A5
:101D20000E460446842021580220202911D1012585
:101D3000002E19D00492002A16D001210D03A268AA
:101D4000AA420AD1F20708D02269002A05D10D461D
:101D50000AE00546284607B0F0BD039527468037C0
:101D60003A78012A054602D1284607B0F0BD05930E
:101D70003A46274654370025D5601170212002923B
:101D80005060FEF79DFC0690049878803880A0682B
:101D9000039988420AD120690028049601D00021C5
:101DA00004910028059903D1064601E004950599A0
:101DB000029805700CE0049A1088194908402168BF
:101DC0008862921C04922E4605997888401E78807D
:101DD0007888002810D000918021002520462A46CE
:101DE000069B00F05BFF002810D1002EE3D0307876
:101DF00021688862761CE7E7009140210025204693
:101E00002A46069B00F04AFF002803D003252846F7
:101E100007B0F0BD202002994860284607B0F0BD09
:101E2000FF010000FEE7F0B583B0019316460446BB
:101E30008020084302AD28702068A1880022FEF7A8
:101E400037FCA0697D210F01012229463B46FFF79F
:101E5000A5FBA069FFF7E6F90128FAD1A069314690
:101E6000019A3B46FFF79AFBA069FFF7DBF90128CF
:101E7000FAD1A18820680122FEF71AFC03B0F0BD58
:101E8000F0B58BB0044609A901250D7000950AAE86
:101E90002A46334600F068F9307800210591E16167
:101EA000F821079108400AAB187009A981270F7023
:101EB000009520462A4600F053FB0A263046089635
:101EC000FEF7DEFA09A90D7000950AAB20462A46F6
:101ED00000F04AF90A9806903046FEF7D1FA8020C1
:101EE000069908430AAB187009A906970F70009568
:101EF00020462A4600F034FB6420FEF7C1FA266A29
:101F0000B0080AAB187009A9862008700095204611
:101F10002A4600F025FB05273846FEF7B1FAB00146
:101F20000AAB187009A987200870009520462A4638
:101F300000F016FB3846FEF7A3FA0AAB05981870B6
:101F400009A988200870009520462A4600F008FB61
:101F50003846FEF795FA26462436B0790AAB187053
:101F600009A989200870009520462A4600F0F8FA51
:101F70000898FEF785FA0596F07909A98B220A7070
:101F80002D280CD902090F230F2A0DD2C2B2792AAB
:101F900004930ED31E3273485043C00C0EE02D2024
:101FA00002090F230F2AF1D3D843C2B2792A04932E
:101FB000F0D22D38C0B2CD224243900A20300AAB75
:101FC0001870009520462A4600F0CAFA089E30464E
:101FD000FEF756FA0AAB2320187009A98C20087066
:101FE000009520462A4600F0BBFA09A91E270F706B
:101FF00000950AAB20462A4600F0B6F807210A9859
:10200000029108430AAB187009A99E20039008703A
:10201000009520462A4600F0A3FA3046FEF730FA33
:102020002420265C09A90F7000950AAF20462A4695
:102030003B4600F099F83F780898FEF721FA0C2EFD
:1020400000D30C2604980740072E00D8029E3001CA
:10205000C0190AAB187009A90398087000952046AA
:102060002A4600F07DFA089E3046FEF709FA0AABD0
:10207000FF20187009A99F200870009520462A4665
:1020800000F06EFA0599487800018978490008182F
:102090000AAB187009A99D200870009520462A46B1
:1020A00000F05EFA2046283040780AAB187009A983
:1020B000A0200870009520462A4600F051FA2820FA
:1020C000205C0AAB187009A9A12008700095204671
:1020D0002A4600F045FA09A94020087000950AAB8D
:1020E00020462A4600F040F83F200A9901430AABF7
:1020F000197009A9C0200870009520462A4600F0F2
:102100002FFA09A90D7000950AAF20462A463B46D2
:1021100000F02AF83878E56107990840401C0AABBE
:10212000187009A906980870009520462A4600F004
:1021300017FAE5613046FEF7A3F909A942200870B5
:1021400000950AAE20462A46334600F00DF8307856
:10215000122803D0652080000BB0F0BDC8200BB062
:10216000F0BDC046CDCC0000F0B581B0009317465D
:102170000D460446818800680022FEF799FAA0699E
:102180007D210E0129463A463346FFF707FA069F9E
:10219000A069FFF747F80128FAD1A06900993A46EB
:1021A0003346FFF7EDF8A069FFF73CF80128FAD1B4
:1021B000A18820680122FEF77BFA01B0F0BDF0B5DE
:1021C00087B015460F460446002A03D038462946F4
:1021D000FEF788F8039505A901250D70009506AE58
:1021E00020462A463346FFF7BFFF3078E561F821E5
:1021F00002910840401C06AB187005A9812001908F
:102200000870009520462A4600F0AAF905A9122078
:102210000870009506AE20462A463346FFF7A4FF15
:10222000307800210491400641D506ABFF2018709C
:1022300005A992200870009520462A4600F090F9E2
:1022400005A913200870009506AE20462A4633469D
:10225000FFF78AFF367805A910200870009506ABB5
:1022600020462A46FFF780FF069806AB187005A99E
:102270008D200870009520462A4600F071F90398D9
:10228000864200D83046002811D00390064605A9A2
:1022900000200870009506AB20462A46FFF764FF31
:1022A000069838707F1C761EF1D10398049005A91A
:1022B0000D70009506AE20462A463346FFF754FFC0
:1022C00030780521E16102990840401D06AB187085
:1022D00005A901980870009520462A4600F040F9AB
:1022E000049807B0F0BDB0B504468189806800222B
:1022F000FEF7DEF901252846FEF7C2F8A189A0689D
:102300002A46FEF7D5F96420FEF7BAF8B0BD70B5DD
:1023100086B0044602A901250D70009503AE2A4639
:102320003346FFF721FF30780521E161F8210140B4
:10233000481D05AB187004A981200870009520463F
:102340002A4600F00DF906B070BD0000F0B58BB064
:102350001E46059208910446C069049009A9012708
:102360000F7000970AAD20463A462B46FFF7FCFE59
:102370002878E761F82106910840401C0AAB1870E4
:1023800009A9812007900870009720463A4600F07E
:10239000E7F809A90E20087000970AAB20463A46D4
:1023A000FFF7E2FE0A980AAB187009A98D200870A1
:1023B000009720463A4600F0D3F80AAB059D1D7001
:1023C00009A9A2200870009720463A4600F0C8F8F4
:1023D000002120460391089A2B46FFF724FD09A906
:1023E0000F7000970AAD20463A462B46FFF7BCFE19
:1023F000287803210291E16106990840C01C0AABCC
:10240000187009A907980870009720463A4600F00E
:10241000A7F809A912250D7000970AAB0894204669
:1024200005973A461C46FFF79FFE2078000712D416
:10243000761E300436D001273846FEF721F809A968
:102440000D7000970AAC08983A462346FFF78CFEB9
:1024500020780007ECD50AABFF20187009A992205C
:102460000870059D0095089C20462A4600F078F8E3
:1024700009A90D7000950AAE20462A463346FFF79B
:1024800073FE3078049906293AD8C0467944097910
:1024900049008F4403213525352A2F00069908402D
:1024A000039D2BE009A901250D7000950AAE08983F
:1024B0002A463346FFF758FE30780499062941D85A
:1024C0007944097949008F4403293D2D3D32370075
:1024D00006990840002533E006990840401C0DE0AD
:1024E00006990840C01C029D08E006990840401D5E
:1024F000052503E006990840801D06250899CD6151
:102500000AAB187009A9079808700125009508986A
:102510002A4600F025F828460BB0F0BD0699084081
:10252000401C0DE006990840C01C032508E00699F0
:102530000840401D052503E006990840801D06253A
:102540000899CD610AAB187009A907980870012293
:102550000092089800F004F8002528460BB0F0BD62
:10256000F0B581B0009317460D4604468188006897
:102570000022FEF79DF8A0697D210E0129463A460A
:102580003346FFF70BF8069FA069FEF74BFE0128C4
:10259000FAD1A06900993A463346FEF7FFFFA069D9
:1025A000FEF740FE0128FAD1A18820680122FEF73B
:1025B0007FF801B0F0BD0000F0B58BB000240A94A4
:1025C00009942E48016820221143016001681140DE
:1025D00005910599016801221143016001681140CC
:1025E0000192059105990168022304931943016042
:1025F00000681840059005980520050718210291EC
:1026000028460095FEF754F80720C10103911C48A5
:102610002246FEF74DF8089411200004079004208C
:10262000069006AF28463946FDF762FF0326099655
:102630000894019D07950298069000983946FDF789
:1026400057FF08940794049806900D483946FDF703
:102650004FFF099608940795039806900848394655
:10266000FDF746FF0626304629462246FEF75AF970
:102670003046FEF74BF90BB0F0BDC04634100240B7
:102680000004005010B5124800210122114B124CD9
:10269000046043608160C260016141618161C16128
:1026A0000162FEF755F8002801D0FDF7E5FE084865
:1026B0000021FEF709F8002801D0FDF7DDFE0448EF
:1026C0000021FEF723F8002801D0FDF7D5FE10BD4C
:1026D000A4000020BC7D701000580040B0B50F4829
:1026E000082200210723016241628162C362016303
:1026F000426310220A4C1B024125AD0030C0FC355C
:10270000016043608160C160056142610838FEF785
:102710008DFD002801D0FDF7AFFEB0BDF000002018
:102720000030014010B5174800210C22164B016201
:1027300041628162E124640218C0016041608160ED
:10274000C260016141610838FFF754FA002801D0E6
:10275000FDF792FE0B480021FFF70CFA002801D08C
:10276000FDF78AFE07480021FFF7C8F9002801D0CD
:10277000FDF782FE0348FFF7A5F9002801D0FDF719
:102780007BFE10BD5401002000380140FEE7704779
:10279000F0B587B0049314460E46054605A80027F9
:1027A0000770FDF78DFF0499081A02940419FDF7CC
:1027B00087FF04908148006823214143080D60434E
:1027C000069003952D68A868304233D00197032105
:1027D0004F020298401C30D0BE4200911CD104E050
:1027E000039800688068384245D0287B05A90870A6
:1027F0000598FDF765FF0499401AA0423ED206985D
:102800000699491E06910028EAD10446E8E7039894
:102810000068806830422ED0FDF752FF0499401ABC
:10282000A0422BD206980699491E06910028EED1A7
:102830000446ECE7384607B0F0BDBE4247D1287BDE
:1028400005A908700598A868384214D0287B05A906
:1028500008700598A86838420DD0287B05A9087033
:102860000598A868384206D0287B05A90870059805
:10287000A8683842E3D1019807B0F0BD039C2068F6
:102880004168E022914341604121890062688A42A7
:102890000BD1A1680122D303994202D09202914246
:1028A00003D1016840229143016001214A03A36AD8
:1028B0005C34934205D10368934303600368134378
:1028C0000360002020706170009807B0F0BD01998E
:1028D000A868304208D0A868304205D0A8683042C5
:1028E00002D0A8683042F3D1084607B0F0BDC04618
:1028F000F0B583B015460F460446FDF7E1FE281AF1
:10290000C519FDF7DDFE06462C4800684001000DA4
:1029100068430290226891680020090622D5791C3C
:102920001DD0019027465C3703E0206880680006D0
:1029300041D5FDF7C5FE801BA84215D20298029929
:10294000491E02910028F0D10546EEE7916809067C
:1029500008D59168090605D59168090602D59168E0
:102960000906F3D403B0F0BD20684168E02291432A
:1029700041604121890062688A420BD1A16801222D
:10298000D303994202D09202914203D101684022BE
:102990009143016001214A03A36A934205D1036870
:1029A0009343036003681343036000203870797019
:1029B000032003B0F0BD019803B0F0BD0800002073
:1029C000704780B5FDF748FF80BD70B598B0002511
:1029D000119510950F950E950D950C9506950595ED
:1029E000049503950295019501267002FDF7BAFF43
:1029F0007007179070041690082015901495022403
:102A000013941294402010900F9530020E900B9466
:102A10000BA8FEF7F9F9002803D0EFF3108072B687
:102A2000FEE70A95099507200790089407A8214614
:102A3000FEF796F8002803D0EFF3108072B6FEE799
:102A40000295019601A8FDF7CDFF002803D0EFF312
:102A5000108072B6FEE718B070BD7047B0B5816ADD
:102A6000CA070CD18A0714D44A071CD40A0724D4F5
:102A7000CA062CD48A0634D44A063CD44CE001223F
:102A8000520403685C689443C26A22435A608A070E
:102A9000EAD50122120403685C689443026B224366
:102AA0005A604A07E2D50122920403685C689443A5
:102AB000426B22435A600A07DAD50122D203036827
:102AC0005C689443826B22435A60CA06D2D50122C5
:102AD000120303689C689443C26B22439A608A067F
:102AE000CAD50122520303689C689443026C2243B6
:102AF0009A604A0610D501221305026854689C4367
:102B0000456C2C4354609D4206D103235B055468F9
:102B10009C43836C23435360090607D50121C904F4
:102B2000026853688B43C06C18435060B0BD00000E
:102B3000F0B581B00446006801684B4B0B40A168BA
:102B400022690A4361691143E26911431943016033
:102B50000321090343688B43E16819434160A1697C
:102B6000236A0B438168414D0D401D438560C36A54
:102B70000F218B43616A0B43C3623D4B984209D0DE
:102B80003C4B984208D13C4800688007000F3BA3AB
:102B90001F5802E0002700E010272646683601256E
:102BA000EB033A489A4210D1082F55D87F443F7919
:102BB0007F00BF44045123511C5151512200FEF7A4
:102BC000CDF8002817D0616A18E0082F44D8C04615
:102BD0007F443F797F00BF44043F2D3F263F3F3F66
:102BE0002C00FEF7BBF8002821D0616A22E0FEF736
:102BF000C7F80028E7D100252EE018464900244AEE
:102C0000515A00F083F9400061684A08101800F03A
:102C10007DF90246103A1F498A421DD20140000741
:102C2000400F084315E0FEF7ABF80028DDD1002582
:102C300012E018464900164A515A00F067F96168D7
:102C40004A08101800F062F901461039114A914201
:102C500002D22168C86000250F483060002020673C
:102C60006067284601B0F0BDF369FFCFFFF4FF11A4
:102C700000440040003801405410024000000000B1
:102C80000400000002000000080000000024F4001E
:102C900064310008F0FF000001000100F0B587B0CA
:102CA00015460E4604460768F9693140891B4A42B9
:102CB0004A410020AA4224D106930494224680323D
:102CC0000C9C002C1FD0611C44D1F9693140891B38
:102CD0004A424A41AA4214D1F9693140891B4A4209
:102CE0004A41AA420DD1F9693140891B4A424A4101
:102CF000AA4206D1F9693140891B4A424A41AA4297
:102D0000E3D007B0F0BD0392FDF7DAFC049FEFF3C8
:102D10001081012080F310880D2252013B681C684D
:102D200094431C6081F31088EFF3108180F31088C6
:102D30003A6893688343936081F310882020039A54
:102D400050601046083000211170202101600320DE
:102D500007B0F0BD0392029001200190C0020590DF
:102D6000049F06E0C0693040801B41424141A942B6
:102D70002DD1FDF7A5FC0699401AA042C7D83868A6
:102D800001684907EED5C169059A1142EAD0059953
:102D90000162EFF31080019C84F310880D2149013A
:102DA0003A6813688B43136080F31088EFF3108048
:102DB00084F3108839688A68A2438A6080F3108897
:102DC0002020039A5060906010460C30BBE70298B8
:102DD00007B0F0BDC4B012A8C821FDF785FA0026DF
:102DE000119610960F960E960D9602AC204600F0A6
:102DF0007DF8324F3846083001900ECC0EC02ECCF4
:102E00002EC02ECC2EC02E4838620420B883052058
:102E10000007B8610821B98238611021B981B86012
:102E2000FDF726FDFFF7D1FDFFF7C6FBFFF72AFCF4
:102E3000FFF754FCFFF776FC019D2846FFF753FA95
:102E40002846FFF71DF802460DAC1EA12046FDF7EF
:102E5000ADF91F48142264232146FEF75FFF284680
:102E6000FFF755FA1F4D3446FDF72AFC001B1949A0
:102E7000884208D3FDF724FC0446174812901748EF
:102E8000139017481490FDF71BFC801BA84209D330
:102E9000FDF716FC06467D20830012A9C822019882
:102EA000FFF754FA38780128DED1C8226423084895
:102EB0000D49FEF733FF00203870D5E77000002081
:102EC000F000002053746174653A2025640D0A00F7
:102ED0005401002089130000242C322C32302C386D
:102EE000302C2A0011270000E401002026210122B5
:102EF00042540449818404498162FF21B231016254
:102F00007047C046070700000800FF6443088B4273
:102F10001AD3002203098B4279D3030A8B425ED372
:102F2000030B8B4242D3030C8B4227D30902FF22AF
:102F300012BA030C8B4202D31212090203D0030B04
:102F40008B4233D31AE0D3E0411A8041401C7047D2
:102F500003460B4371D443088B42F5D30022030987
:102F60008B4254D3030A8B4239D3030B8B421DD3BC
:102F7000030C8B4202D394466EE0090AC30B8B42CA
:102F800001D3CB03C01A5241830B8B4201D38B0375
:102F9000C01A5241430B8B4201D34B03C01A52411A
:102FA000030B8B4201D30B03C01A5241C30A8B425D
:102FB00001D3CB02C01A5241830A8B4201D38B0248
:102FC000C01A5241430A8B4201D34B02C01A5241EC
:102FD000030A8B4201D30B02C01A5241CDD2C3095E
:102FE0008B4201D3CB01C01A524183098B4201D3DA
:102FF0008B01C01A524143098B4201D34B01C01AC5
:10300000524103098B4201D30B01C01A5241C3083C
:103010008B4201D3CB00C01A524183088B4201D3AB
:103020008B00C01A524143088B4201D34B00C01A97
:103030005241411A524110007047CA0F00D0494214
:10304000031000D34042534000229C4603098B42A8
:103050002DD3030A8B4212D38901FC2212BA030A30
:103060008B420CD3890192118B4208D389019211B2
:103070008B4204D3890137D0921100E08909C3093A
:103080008B4201D3CB01C01A524183098B4201D339
:103090008B01C01A524143098B4201D34B01C01A24
:1030A000524103098B4201D30B01C01A5241C3089C
:1030B0008B4201D3CB00C01A524183088B4201D30B
:1030C0008B00C01A5241D9D243088B4201D34B0026
:1030D000C01A5241411A00D201465241104663467D
:1030E0005B1000D34042704763465B1000D3404200
:1030F00001B50021004201D0C9430846C046C04680
:1031000002BD000000000000000000000000000000
:1031100000000000000000000000000000000000AF
:103120000000000001000000020000000300000099
:103130000400000006000000070000000800000076
:103140000900000000000000000000000000000076
:103150000000000001000000020000000300000069
:1031600004000000010002000400060008000A003C
:103170000C0010002000400080000001010101034C
:10318000070100000804020408010101B031000831
:10319000000000201000000004010008C0310008F9
:1031A00010000020A008000020010008000000001E
:1031B00001000000040000000024F40000000000F2
:04000005080000C12E
:00000001FF
