:020000040800F2
:10000000680800209901000879410008CD3C0008EB
:1000100000000000000000000000000000000000E0
:10002000000000000000000000000000AD430008D8
:1000300000000000000000007B410008AF43000802
:10004000AB01000800000000AB010008AB01000894
:10005000AB010008AB010008291F0008AB01000834
:1000600000000000AB010008AB010008AB01000874
:10007000AB010008AB010008AB0100080000000064
:10008000AB0100080000000000000000AB01000808
:1000900000000000AB010008AB010008AB01000844
:1000A000AB010008AB010008AB010008AB01000880
:1000B000AB0100080000000000000000000000008C
:1000C00000F002F800F059F80CA030C808382418E5
:1000D0002D18671EA246AB4654465D46AC4201D180
:1000E00000F04BF87E460F3EB6460FCC0126334259
:1000F00000D0FB1A3343A246AB46184748650000C0
:1001000068650000103A02D378C878C1FAD852075F
:1001100001D330C830C101D504680C6070470000BD
:100120000023002400250026103A01D378C1FBD813
:10013000520700D330C100D50B60704710B5642959
:1001400002D100F031F910BD782902D100F062F936
:1001500010BD732902D100F00DFF10BD002010BDAD
:100160001FB501F055FE04000020002106F002F842
:10017000401C60601FBD10B510BD01F0EFFD1146C1
:10018000FFF7EEFF04F04CFF01F010FE03B4FFF7A1
:10019000F2FF03BC01F034FE0748804707480047E0
:1001A000FEE7FEE7FEE7FEE7FEE7FEE70448054957
:1001B000054A064B7047000047440008C10000088C
:1001C00068020020680800206804002068040020FD
:1001D000FEB5044610460D46184373D0A6468C461D
:1001E0000020A41A01469D4167D3664600270124DA
:1001F0003D46B61A9D4102D313463A462124654630
:1002000076462F04360C3E432D0CB61A9D4104D37E
:10021000150C1B042B4312041034654676462F063A
:10022000360A3E432D0AB61A9D4104D3150E1B0211
:100230002B4312020834654676462F0736093E43A3
:100240002D09B61A9D4104D3150F1B012B43120132
:10025000241D65467646AF07B6083E43AD08B61A7C
:100260009D4104D3950F9B002B439200A41C65462F
:100270007646EF0776083E436D08B61A9D411AD3BD
:1002800092185B41641C16E00018764665464941A9
:10029000B71A9D410191009009D36046B11A984167
:1002A0008E468446009801990025401C6941DD076F
:1002B00052082A435B08641EE6D57246634603B0C3
:1002C000F0BDFFE72046284307D00020C043014689
:1002D000C046C04622462B46F1E700200146F7E71C
:1002E0000FB41CB5074B06AA7B44694600900598DD
:1002F00000F015FE0020694600F024FE1CBC08BC7E
:1003000004B01847590C000070B5044685690068B0
:10031000C10601D5302600E02026C00707D070BDF9
:1003200062683046A1689047206A401C20626D1EBA
:10033000F6D570BD70B5044685690078C00707D151
:1003400070BD6268A16820209047206A401C20622E
:100350006D1EF6D570BD70B50C460546012A05D058
:100360002878800600D5EA69002302E0012305E031
:100370005B1C934202D2E05C0028F9D1A869E61820
:10038000C01AA861286AC01828622846FFF7BCFF77
:1003900004E06A682078A968641C9047B442F8D3E6
:1003A0002846FFF7C7FF70BDF7B50025752910680F
:1003B000009914A611D0C046C046002802DA404277
:1003C00011A608E0009909688A0701D50FA602E086
:1003D000490704D50EA6012501E0C046C046009F8E
:1003E0000024243704E000F003FE30313955641C4A
:1003F0000028F8D12B4632462146009800F032FD05
:10040000FEBD0000000000002D0000002B000000D9
:100410002000000070B504460D4621461068C04615
:10042000C0462188090502D50F4A7A4402E00E4AE7
:100430007A440E3223460021243305E006070009E2
:10044000360F965D5E54491C0028F7D120780023B2
:10045000000705D5702D03D0002901D002231132E9
:10046000204600F0FFFC70BDE65F0000F3B50446D7
:10047000002081B020622046E168884700287DD0B6
:10048000252802D06268A16883E0454F00257F449B
:100490002046E16888472028064608DB312E06D230
:1004A000B81920380078002801D00543F0E7A807E4
:1004B00001D5042085430020E0610746A0612A2E73
:1004C0000AD0304605F040F9002827D0B8000019BE
:1004D000303E0090866119E00298BA00121902C8F5
:1004E000916102902046E1688847012F064617D1A6
:1004F000E06900281FDA202085431CE000980A21CB
:100500008069484300998019303888612046E16845
:100510008847064605F018F90028EFD1012F0AD0C8
:100520002E2E08D12046E168884706462020054344
:100530007F1C022FC3DBA069002803DA4042A061C0
:1005400001200543E80701D010208543002E24D068
:1005500030464138192803D80120C002054320360F
:10056000204625603146029A1546FFF7E7FD002830
:100570000CD0012807D0ED1DE80800E00DE0C00018
:100580000830029077E72D1D029574E762683046C7
:10059000A1689047206A401C6CE7206AFEBD0000FD
:1005A000AA5F00000FB400B58DB010A909900B90A0
:1005B0000020C04300910A9000200C900748784426
:1005C0000690074878446A4607900F9909A800F0FA
:1005D000DBFC0DB008BC04B018470000EB090000BC
:1005E000050A0000FFB5144683B0002000260090E5
:1005F0005068019091699768049888470C9905465E
:100600000698084305D009E0A1690498761C88473C
:100610000546216A284688470028F5D1681C03D082
:100620000198C00704D017E00020C04307B0F0BD18
:100630002068011D2160006800900DE00198C0074E
:1006400004D1009805700098401C0090A169761CA8
:1006500004987F1E88470546002F1CDD681C1AD0B1
:10066000069800280FD0E817C00E40194111400924
:100670008A000699400151182A1A09680120904001
:100680000142DBD107E00C980028D7D12846216A27
:1006900088470028D2D0E169049888470C98002840
:1006A00007D1002E05DD0198C00702D10098002176
:1006B0000170A068B84204DD0C98002804D0002F17
:1006C00002D00120C043B1E73046AFE730B5054660
:1006D0000B462A461C781078521C5B1C002801D05F
:1006E000A042F7D0002C03D0002802D06D1CEFE709
:1006F000284630BD034610B50B439B070FD1042A93
:100700000DD308C810C9121FA342F8D018BA21BAD5
:10071000884201D9012010BD0020C04310BD002A2D
:1007200003D0D30703D0521C07E0002010BD03788C
:100730000C78401C491C1B1B07D103780C78401C0B
:10074000491C1B1B01D1921EF1D1184610BD00009F
:10075000034670B502460B439B070FD10E4CE601D2
:1007600000E008C208C91D1B9D433542F9D0D9B22B
:100770001170521C00290DD01B0AF8E70B78491C98
:100780001370521C002B05D00B78491C1370521C9F
:10079000002BF3D170BD00000101010130B5441CF4
:1007A00003E00178401C00290DD08107F9D10B4BE3
:1007B000DD0104C8D11A91432940FAD0001B0A0672
:1007C00003D0C01E30BD001B30BD0A0401D0801E06
:1007D00030BD0902FCD0401E30BD00000101010106
:1007E000D2B210B513029A1813049A1800F00EF83A
:1007F00010BD01E004C0091F0429FBD28B0701D5FD
:100800000280801CC90700D00270704700290BD0FD
:10081000C30702D00270401C491E022904D383077B
:1008200002D50280801C891EE3E70022EEE7002249
:10083000DFE70000002203098B4273D3030A8B42D7
:1008400058D3030B8B423CD3030C8B4221D312E0D1
:1008500003460B437FD4002243088B4274D3030921
:100860008B425FD3030A8B4244D3030B8B4228D3C2
:10087000030C8B420DD30902FF2212BA030C8B42E8
:1008800002D31212090265D0030B8B4219D300E088
:10089000090AC30B8B4201D3CB03C01A5241830B0D
:1008A0008B4201D38B03C01A5241430B8B4201D3BD
:1008B0004B03C01A5241030B8B4201D30B03C01AE6
:1008C0005241C30A8B4201D3CB02C01A5241830A60
:1008D0008B4201D38B02C01A5241430A8B4201D38F
:1008E0004B02C01A5241030A8B4201D30B02C01AB9
:1008F0005241CDD2C3098B4201D3CB01C01A524120
:1009000083098B4201D38B01C01A524143098B42A8
:1009100001D34B01C01A524103098B4201D30B0191
:10092000C01A5241C3088B4201D3CB00C01A5241B6
:1009300083088B4201D38B00C01A524143088B427B
:1009400001D34B00C01A5241411A00D20146524114
:10095000104670475DE0CA0F00D04942031000D333
:10096000404253409C46002203098B422DD3030A88
:100970008B4212D38901FC2212BA030A8B420CD398
:10098000890192118B4208D3890192118B4204D3C1
:1009900089013AD0921100E08909C3098B4201D341
:1009A000CB01C01A524183098B4201D38B01C01A7B
:1009B000524143098B4201D34B01C01A52410309F2
:1009C0008B4201D30B01C01A5241C3088B4201D3A1
:1009D000CB00C01A524183088B4201D38B00C01A4E
:1009E0005241D9D243088B4201D34B00C01A524125
:1009F000411A00D201465241104663465B1001D3B2
:100A00004042002B00D54942704763465B1000D33B
:100A1000404201B50449002802DC491C084000E0BE
:100A20000846C046C04602BDFFFFFF7F70477047C3
:100A3000704700000246C80FC00781434B0030B525
:100A40004B405B009B0D20D01923DB06C918012306
:100A50001B05994220DB0324A40704251346AB4061
:100A60000BD3002B04D1EB0613409B00E34204D4CC
:100A700001246407002312195941FF231B059942E1
:100A80000BD2C9000143500F09E0CB0204D501434A
:100A90000803024305D0054830BDFF21C9050843BE
:100AA00030BD084607210905884330BD0000C07FDE
:100AB0001F22030C02D10F22000402D0030E03D028
:100AC00004E00020014670470002083A030F01D1FC
:100AD0000001121F830F01D18000921E002801DB4C
:100AE0004000521E120551184205C012411810460E
:100AF0007047C10FC90700D040420122920711433D
:100B0000D6E701218907D3E7F0B58B4C0F092546BD
:100B100089B0BD437BD01D092646AE43FAD00E46B0
:100B20005E402740F60F3E43254071D0240121420C
:100B3000FBD0FF24AD19A4042D1B039501252D0521
:100B4000DB02DB0AC9022B43C90A29431E01090142
:100B5000040F130F050121431701880B82039143F2
:100B60002D098C46A90B1E438A039543B30B9A03A8
:100B700096433F09BA0B9403A74302962E467E4341
:100B80000497B6464E19D7190C460196544305975B
:100B90007E43371B7646BF1B3601B646BE0B361961
:100BA00000967646BC043719009C01D3641C00945F
:100BB0006400002F01D001263443029E049F754338
:100BC00066467E430496760034196E00341900940C
:100BD000029C019E1C196643751BAE460694654631
:100BE0004519059C05956C43594375460891691A4A
:100BF0000191049E01465143A41B0491611A009C7B
:100C00000791E10605D061090122114302E072E07B
:100C10006EE06109089D00272C0A2D066918049DC5
:100C20007C412A0A2D066918019D6241AC0DAD0276
:100C30006D185441079A910D920255196141029A1B
:100C4000644658435443069B059A5A43121A131B91
:100C50009A0E9B015B187A41010B0005C3185141A4
:100C6000220A200644195A419A4200D2491C012006
:100C70004002814203D315230226F64302E01423E7
:100C80000326F6432020C51AA9401746AF40DA4094
:100C90000A4320460399D8400914731819055118BE
:100CA000039A3843D2075140AC4009D00122944006
:100CB00006D30022401C5141002C01D140084000C5
:100CC0001E4A934212D3012203989206904207DBF8
:100CD0000520400709181A480143C012414004E0AA
:100CE000032040070818C10FC907002009B0F0BD54
:100CF0000020F107FAE705180C464C4111486D42F7
:100D0000A04115D394181A465A410E4864429041A6
:100D10000ED301204A004005824209D35A00824284
:100D200006D35940C90F084AC90700201143DDE71F
:100D300000200649DAE700000000FF07FE07000078
:100D4000FFFFFF7F0000E0FF0000F07F0000F87F62
:100D50000121C9050123411842001B06D3185B0E6F
:100D60000AD0C1100722D206891840075242D14248
:100D700001D5520089187047090208D50146002A9A
:100D800003D0C10FC90700207047104670474202C8
:100D900002D0002002497047072109050143F4E70A
:100DA0000000F87F10B501469E240002CA15A30773
:100DB000002A02D01843002A04DBA21A002A0CDD04
:100DC000D04010BD1206120E01D140004008A21AF8
:100DD00003D4D04040420028F3DDFF224800120631
:100DE000904201D9002010BDC817C043584010BD23
:100DF0001F22030C02D10F2200041CD0030E01D1CC
:100E00000002083A030F01D10001121F830F01D124
:100E10008000921E002801DB4000521ED2055118AE
:100E2000021251181922904004D3491C002801D104
:100E30004908490008467047C10FC90700D0404221
:100E4000012292071143D3E701218907D0E710B5AA
:100E500000F0E6FC006810BD10B5044600F0E0FCB0
:100E6000046010BDFFB504460D4681B024300090EB
:100E70002168880604D51022E0699143216000E0D2
:100E80000120A84201DD471B00E000270498A1696A
:100E90007A191018081AA0612078C00602D42046DA
:100EA000FFF732FA002608E003986268A168805DC7
:100EB0009047206A401C761C206204988642F3DB2F
:100EC0002078C0060AD52046FFF71EFA06E06268C1
:100ED000A16830209047206A401C206238467F1E5F
:100EE0000028F4DC07E000986268A168405D904744
:100EF000206A401C206228466D1E0028F3DC204634
:100F0000FFF718FA2078000602D5022005B0F0BDE0
:100F10000120FBE701694A1C02610878704700B5AF
:100F20008FB0029100210591054901937944039105
:100F3000114604906846FFF799FA0FB000BD000013
:100F4000E5FFFFFF0A681070521C0A60704710B579
:100F50004369002B02D0C046C04601E0FFF7FBF911
:100F6000012010BD1278014624310A7000224A7017
:100F70000122ECE711680022D243E8E70268511829
:100F8000137801601846704710B5D160054979445F
:100F9000516105497944116200211161114600F047
:100FA0004DFC10BDEBFFFFFF910800004268002AD6
:100FB00008D001680B78491C002B03D0521E06C0D4
:100FC000184670470121C160881E70474268002A98
:100FD0000BD0C3680168002B07D183688B4204D013
:100FE000491E521C06C0002070470020C0437047B5
:100FF00001468008081A02091018020A1018020C8B
:101000001018C008820012185200891A01E0401C12
:101010000A390A29FBD27047F0B50C46871A9C4161
:101020000D46861A9D4103D2C01BA141D2196341CE
:101030000D0D1F0DC94EEC1BAE435CD07F057F0D1F
:101040000026002F51D02D05AC46A943DD02012317
:10105000ED0A1B051D4320231B1B24D41746E74024
:10106000381871412F46E740CC199D402818314669
:1010700061410C0D27D161449A4013D50023401CD7
:10108000594152000ED14008400001224B00520548
:10109000D34207D305204007C14201D5B04900E043
:1010A000B0493046F0BD6B00002A00D001229A18EA
:1010B0001F23203C1B1B01D5002302E0E54028181C
:1010C00071410C0DD7D0012424050919C407CD079F
:1010D00040084908E40F28436144002CD5D000247F
:1010E000401C61419A40D0D1CDE76A05520DD9D15B
:1010F000C90FC907D5E79C4D4E00002801D0012437
:1011000000E0002434195F00002A01D0012600E02D
:101110000026BE19954FAC420CD8AE420AD8B44254
:1011200006D001256D05EC42BCD010461946F0BD35
:101130009942FCD000203946F0BDF0B51FB40C46F2
:101140000F46811A9F412546861A9D4106D20125E8
:10115000ED076F40401ABC4152187B41210D1E0D16
:101160008D1BAC467D4D8D437ED075056D0D7CD0BD
:101170000D05AE46AC431B031B0B794D52429D41FE
:10118000202366469B1B14D31746F74038180026C9
:101190000090744160462F460741E41900989D4035
:1011A0002818664116D4714671189A4025D5012336
:1011B00020E093182A466A415200002B00D0521CAE
:1011C0001E23203E9B1B002B61DD3541EE172818A6
:1011D0006641E8D5001876415B1C9A4000D3401C5C
:1011E0004B05F3181524E34010D3002B52D0714661
:1011F0007118D30FC01802D3491C05B0F0BD0123EC
:10120000DB079A42F9D140084000F6E70122520577
:10121000B21801D1002853D00123CC0ADB02994334
:10122000891E002A08D1020C03D0020C00041039D8
:1012300002E00246002020390023550B05D112029E
:101240000823550B01D152010D23550C01D1120178
:101250001B1DD50C01D192009B1C150D01D1520014
:101260005B1C2025EE1A01E02CE022E00546F5404B
:1012700015439840CA1AE10769181305C918002ACE
:10128000BBDA032040070818C10FC9070FE07146F9
:101290006118B2E7F10740080843711071444A0031
:1012A0000CD001235B059A42A7D2C90FC9070020C1
:1012B000A3E74905490D26D1002001E00028F4D11B
:1012C00000219AE7284D6600002801D0012100E0A6
:1012D000002171185F00002A01D0012600E00026DD
:1012E000BE19224FA94210D8AE420ED8B14208D042
:1012F00001256D05E94206D01946A8024140104675
:101300007BE79C4201D0214677E70020394674E70D
:1013100010B50C465C4005D50124E4076340FFF797
:101320000CFF10BDFFF778FE10BD30B40C465C40DA
:1013300004D50124E407634030BC6DE630BCFCE614
:1013400070B50124E40761400D465D4002D4FFF70B
:1013500063FE70BD6340FFF7F0FE70BDFF07000045
:101360000000F0FF0000F07F0000E0FF0000F87FC9
:10137000F0B5F94D0C091E092C402E402F468BB0BC
:10138000A7437DD0B543FCD0002E7AD0002CFCD0F2
:101390000D465D40ED0F2543AC1BFF25AD046419E0
:1013A0000894C502440DC9022143500DDC020443D8
:1013B0000120C00701430443D2020191200C110C0B
:1013C00000958C46010423468B430A91614609042B
:1013D000E24D8A430991010A7D444919803909780F
:1013E00005464D4301266D18F605751B6943C90C6A
:1013F000640B891C4C436418B5012C1B250C2E046E
:10140000B4434C434D43210C691889090591009D53
:10141000E90701D00121C90704912C460199670809
:10142000CD072F434C08059DE10B4D432D0C29465C
:101430006646754302950D4645432E46029D7D1B2B
:10144000B44100950D465D4301942C0C2F040D46CC
:101450005543AE462D0C3D43029503947546049CBE
:101460002D04641B049406D2029C039D641C002678
:1014700075410395029401AC70CC009F7D1B01E087
:101480003EE162E1B4410904009507910194059998
:10149000A4086143090C0C464443650BE7040C4661
:1014A00066467443A646640B3C4303950294744617
:1014B000049DE4042C1B049406D2029C039D641C2E
:1014C000002675410395029401AC70CC009F7D1BF2
:1014D000B44101940C465C430095650FE7000C464F
:1014E0005443A646640F3C43039502947446049DFE
:1014F000E4002C1B049406D2029C039D641C00266D
:1015000075410395029401AC70CC009F7D1BB441E2
:10151000AE09AF06049DC900AD092F43049DA40682
:10152000AD060495079D344369180791059DE10BAD
:101530004D432D0C29466646754302950D4645439D
:101540002E46029D7D1BB44100950D465D430194DE
:101550002C0C2F040D465543AE462D0C3D430295F1
:1015600003947546049C2D04641B049406D2029CCB
:10157000039D641C002675410395029401AC70CC58
:10158000009F7D1BB44101948C050694079C890A39
:10159000611800950791019C0599A4086143090C05
:1015A0000D464543680BEF040D46644665436C0BDE
:1015B0003C43049FED047D1BAC4602D20025641C15
:1015C0006841009E019D371B85410846584301959F
:1015D0000C46460FC5005443600F28436546E4009F
:1015E0002C1B02D20025401C6E41019D3F1AB541C3
:1015F0002846BD09800628438446A009BF064E023E
:101600000699A40676180743079D002068410A99A9
:10161000079019430020099B00906046FF1913436F
:101620004041E20F64003A43A4460446D71A8C4175
:10163000A04203D90120009020463A46C70F9418D3
:1016400040416246D20F2243644664000494009CE9
:10165000BE466400D71AA446044602978C417746DA
:10166000002F01D1A04204D96046401C8446029A52
:101670002046C40FA64694184041049A0546D20F4E
:10168000224364466400D31A8D417146002901D17A
:10169000A84202D928461A46641C10430122002899
:1016A00000D0164361020020079B891904465C4163
:1016B0000223002C02DB491813466441089DCE0A20
:1016C0002D145D194B056705E10A2C050D190899C4
:1016D0003E43C9076940002B08D0934006D300223F
:1016E000761C5141002B01D1760876001C4A002D52
:1016F00043DB154241D0AA433FD030460BB0F0BD8A
:1017000006180D464D41174C7642AC411AD3951838
:101710001C465C41134A6D42A24113D3012252057B
:101720004C00D4420AD15C00D4420BD04B4002D5CD
:1017300092021143E2E749004908DFE75940C90F27
:10174000C90718E000200849D8E7054801420DD133
:101750000342F7D0F2E700000000FF07FC50000052
:101760000000F07F0000E0FF0000F87F11485940C2
:101770000143C01241400020C0E70123089A9B06A4
:101780009A4205DC032252078918C90FC907B5E739
:10179000052252078918074A1143D2125140ADE77A
:1017A00070B515461C4602460B4628462146FFF7F3
:1017B000DFFD70BDFFFFFF7F70B505464800440D9B
:1017C000124B0020002C0AD0634008D09A4206DA5F
:1017D0006642B24203DD12054019514170BD002C32
:1017E00008D0002B09D0C90FC907002AF6DB084A28
:1017F000114370BDC90FC90770BD28460A031043C5
:1018000002D00020034970BD284670BDFF070000CC
:101810000000F07F0000F87F00487047380000208B
:10182000004870473800002010B5044600F0B6FAB2
:101830000068005DC007C00F10BD0000F3B50C4686
:101840008FB000200C90012000260E9008460C302E
:1018500003906269039801219047051E2ED0252D23
:101860002DD0216A8847002818D062690398012189
:101870009047216A88470028F7D16269411E039882
:10188000904700E0761CA1690F988847216A884735
:101890000028F7D1E1690F988847DAE7A1690F9826
:1018A0008847A842074601D1761CD2E7E1690F9824
:1018B00088477F1C02D10C98002877D06BE16269C1
:1018C000039800273D46394690472A280CD1626983
:1018D000039801219047012506E00A214F433F1854
:1018E000303FEBD4102005436269039801219047F3
:1018F000014630390A2903D2AC498F42DEDCECE7DD
:10190000E90600D4AA4F6C280AD04C2810D06828C9
:1019100024D06A282ED074280CD07A280AD00DE062
:1019200062690398012190476C2823D004211CE0B0
:10193000202005436269039801219047A76065282C
:1019400065604FD026DC582839D01ADC452849D0AC
:1019500012DC252834D04128B0D143E062690398D5
:1019600001219047682802D008210D43E6E70120B5
:10197000C002DEE70220DCE7462833D047289DD1AD
:1019800030E05B2870D061282CD063286CD06428AC
:1019900094D161E06F284FD009DC662822D06728F7
:1019A00020D0692826D06E2817D12EE0EFE07028CD
:1019B0004DD073286FD075284ED078280DD154E0C3
:1019C000A1690F9888472528054600D16CE7E16991
:1019D0000F9888476D1C00D16DE7DCE00A224CE0CF
:1019E0000A2252E0012023466A460F99C043C046AE
:1019F000C046C5E040212846234608436060A8074A
:101A000001D5002239E000223FE0E80700D020E7BE
:101A10002068011D21600068290501D5067018E7BE
:101A2000290701D5068014E7A90703D5F117066039
:101A300041600EE706600CE7402128462346084334
:101A40006060A80701D5082217E008221DE0594967
:101A500028460840606016E0402128462346084397
:101A60006060A807BCD5B9E715E0402128460843C7
:101A70006060A80707D52346102201200F99C043B4
:101A8000C046C0467CE01022234601200F99C04387
:101A9000C046C04674E0002163280B4601910091C6
:101AA00002910D9102D05B2807D03BE0E80601D4FB
:101AB0000120A0600120009034E0E06801210D9039
:101AC0006269039890475E2807D101200190E06881
:101AD00001210D906269039890472169002906D180
:101AE0000B4604AA8F00491C0829D351FADB0028B1
:101AF00051D02169002926D00298401C02906269C9
:101B00000398012190475D28F1D10198002808D061
:101B1000002004AB8100401C5A58D24308285A5078
:101B2000F8DB04AB2069002820791CD04007029A1A
:101B300000980D9B0092224602901F480F991DD5D8
:101B4000C046C0461CE0C117C90E09184A11490910
:101B5000930004AA9A184901411A13680120884089
:101B600003431360CBE74007224613480F9902D581
:101B7000C046C04604E0FEF735FD01E0C046C04661
:101B800000280ADA401C06D10E98002803D0002055
:101B9000C04311B0F0BD0C98FBE7E90702D10C99E6
:101BA000491C0C91361800200E9052E6CCCCCC0C7F
:101BB000FFFFFF7FF1F7FFFFFEFFFFFFF8B5264CA9
:101BC0004E00069DA6420AD8A64201D1002806D1A1
:101BD0005E00A64203D8A6420AD1002A08D00D24EE
:101BE0002404254233D02946002000F0E7F8F8BD50
:101BF0000C461C4311D4994207D0C81A02D3EFF304
:101C00000080F8BDEFF30080F8BD801A02D3EFF337
:101C10000080F8BDEFF30080F8BD09242407E5003B
:101C20008B4207D0581A02D3EFF3008006E0EFF39F
:101C3000008007E0101A03D3EFF30080A04303E015
:101C4000EFF30080A043284380F30088F8BD00959F
:101C500000F0CCF8F8BD00000000E0FFF0B53D4B0F
:101C600002460C461C400020002C63D03A4D8B43AA
:101C700066D000296BDB0B0D1D05A94301252D0541
:101C800029430124FD33E34001D392184941FF3336
:101C900081339C468B02940D0121234389074C42DA
:101CA000920200271B198C105D1A04D42D1B02D43C
:101CB0002B466500491992185B416408F4D15C1AFF
:101CC00008D40125ED07EE175519744102D42A46B0
:101CD0002346491C94185B41012292071D46E61BCE
:101CE0008D4106D4B61A854103D42B46550034469F
:101CF0007F1924195B415208802AEFD1234300D079
:101D0000022338460A22D04001D3012213438A0518
:101D100010436246890A12058918002B09D0012256
:101D2000D34002D30022401C5141002B01D1400876
:101D30004000F0BD0B03134307D0C90FC907F0BD26
:101D40000803104303D1002901DB1046F0BD002039
:101D50002946F0BD0000F07F0000F87F7546FFF7D0
:101D60005BFDAE46050069465346C008C000854687
:101D700018B020B5FEF71AFA60BCB6460026002758
:101D8000C0C5C0C5C0C5C0C5C0C5C0C5C0C5C0C52B
:101D9000403D490849008D467047000010B500F0ED
:101DA00037F8001D10BD00BFCD43000010B504463C
:101DB000C046C0462046FEF7E9F910BDC80212D55C
:101DC0004803400F002804D0C803C04301218840C5
:101DD0007047EFF300800001000903210907084361
:101DE00080F30088704700207047000010B5002085
:101DF0000249029A00F010F810BD00000000F87FC0
:101E000001491820ABBEFEE7260002007047000023
:101E1000004870475800002010B50C461107090F04
:101E2000092904D00A290AD008290CD104E0114656
:101E30000820FFF7C3FF06E0510606D501E0510672
:101E400001D50120C007214610BDD10607D50101EB
:101E50000909CC084907000E0006044309E0410FB8
:101E600020024907000A0143200E00061D22D1412D
:101E700001430846E7E7000082078B079A423FD1FB
:101E800070B5920F0AD0032402780B78401C491CCD
:101E9000002A33D09A4231D12042F5D1214EF401AB
:101EA00004C808C9951B9543254018D19A420FD103
:101EB00004C808C9951B9543254010D19A4207D103
:101EC00004C808C9951B9543254008D19A42E7D01C
:101ED00012BA1BBA01209A4200D2404270BD12BA17
:101EE0001BBA2DBA18241000E0401900E140401A36
:101EF00005D12E00E64002D1083CF4D1D01A70BDC5
:101F000002780B78401C491C002A09D09A4207D15C
:101F100002780B78401C491C002A01D09A42EFD06D
:101F2000D01A70470101010180B5042000F01AF8B1
:101F300080BDEFF3108072B6FEE70000B0B5044636
:101F400000F016F90546601C02D004480078041918
:101F500000F00EF9401BA042FAD3B0BD00000020F3
:101F600070470000B0B50446074D2868204203D0F2
:101F70002C60204600F00AF86868204203D06C60AC
:101F80002046FFF7EDFFB0BD0C180240704700007F
:101F9000F0B58CB00B916A4A904201D0052200E066
:101FA000032200920B990F68002F00D1C6E0012395
:101FB000002635460293099608960A9013E03A43A4
:101FC000614802600A980B9A17683A46DA40361D53
:101FD00008355B1C0999891C09910899491C0891CD
:101FE000002A00D1AAE0591E029C07918C4027408C
:101FF000E9D0069505960B9A516803260D463540A3
:102000006A1E012A04911BD8032209998A400A9862
:10201000806890430B9EF6688E4006430A9886605F
:102020000498C006C00F079988400A9E7668A643A8
:1020300006430A984660D4430A98089949000BE081
:10204000324609998A40D443032D05D10999039159
:102050003546059E049923E0C268019422400B9CFA
:10206000A4688C401443C460022D039115D11C2038
:10207000059E30400F2282400799CC08A4000A9D9B
:102080002C19256A95430B990A6982402A432262DA
:102090000A98496803250D4001E0059E0499019CBA
:1020A000039A9540026822402A4302608A03920FF5
:1020B000069D88D0182028400F25854003220799C7
:1020C00091430A9A1F4C6618346EAC43603605255E
:1020D0002D07AA4208D01D4DAA4207D01C4DAA4286
:1020E000009D04D1022502E0002500E00125854085
:1020F00025433560134802680B984068C40201D537
:102100003A4300E0BA43059E069D0E4C2260626889
:10211000840201D53A4300E0BA430A4C62600A4A9D
:102120005268840301D53A4300E0BA43064C62602A
:102130002268C00300D542E7BA4341E70CB0F0BDC6
:10214000000C0050001802408018024000040050AB
:102150000008005000690840411E88417047002A6D
:1021600002D0182281507047282281507047000009
:10217000014800687047C04664020020B0B50246BE
:102180004120135C0220202B19D1134640331C78C8
:10219000012C14D024205870106802680124A24336
:1021A0000260220305689543056002680A430260E5
:1021B0000168214301600020187020215970B0BDD2
:1021C000B0B502464120135C0220202B19D11346E2
:1021D00040331C78012C14D02420587010680268F9
:1021E0000124A24302600F221202056895430902EE
:1021F00029430160016821430160002018702021FB
:102200005970B0BDF0B581B0002822D00446054613
:1022100040356878002804D100202870204600F05E
:1022200041FA242068702068026801218A43026014
:102230000F2212066368934303618368194A1340AF
:102240008360A368E668012E06D1CE033343836022
:102250000AE0012001B0F0BD2127BF023B438360AB
:10226000022E01D1CB02436043680F4E1E434660ED
:10227000C3681340C360226963691343A2691202F1
:102280001A43C260E269236A1343036002680A4387
:10229000026000206064202169702063A87001B092
:1022A000F0BDC046FF7FFFFF00800002F0B585B0A3
:1022B0000C4605464120295C0220202900D0E4E09C
:1022C000294640310E78012E00D1DEE001930392C1
:1022D0000120049102900870FFF74AFF0646286823
:1022E000816909040BD50298C703FFF741FF801BE2
:1022F000192800D9B3E0286881693942F5D1222133
:10230000049A51701021917000216964019A6A85C4
:10231000039A6A6201916963698D090ADA4ADB4BA3
:1023200007D0144042681A40001DFF21594B039406
:102330000AE0698D47681F401440CAB21204039432
:102340001219001D524B3C460A9F14431C43046063
:102350002985688D002854D0CF4C10E06A8D2A85DD
:1023600041682140D2B21204039BD21801235B06BC
:10237000001D114319430160688D002841D0284693
:102380003946324601F052FD002858D1686A296862
:10239000496A0170688D401E6885686A401C6862E1
:1023A000288D401E2885698D0029E5D00004E3D1E1
:1023B00028688169090619D4791C0BD0002F57D0E1
:1023C000FFF7D6FE801BB84254D8286881690906F9
:1023D000F6D50BE08169090608D48169090605D4A0
:1023E0008169090602D481690906F3D5698D090A54
:1023F000B4D0FF21298542682240001D0399A74BD4
:10240000B7E7002F10D02868816989061AD42846BA
:102410003946324601F05CFC002810D1FFF7A8FED7
:10242000801BB842EFD91AE028688169890609D46F
:1024300000212846324601F04BFC00280DD0012037
:1024400005B0F0BD2021C1614268954B1340436047
:10245000049841700146019814E0FFF789FE686C0A
:10246000202108436864049841700146029809E0FD
:10247000FFF77EFE686C2021084368640498417071
:102480000146012000220A708A7005B0F0BDC046E6
:10249000002400020024FF01F0B585B00D4604467B
:1024A0004120215C0220202900D0EAE02146403171
:1024B0000E78012E00D1E4E00193039201200491F3
:1024C00002900870FFF754FE0646206881690904EF
:1024D0000BD50298C703FFF74BFE801B192800D9C4
:1024E0009CE0206881693942F5D12121049A51701C
:1024F0001021917000216164019A6285039A6262E1
:1025000000916163618D090A5F4A604B08D01540F4
:1025100042681A40011D0191FF215E4B03950BE0BB
:10252000618D47681F401540CAB2120403955219C5
:10253000031D0193564B3D460A9F15431D43019AC7
:10254000156021850EE0628D22854168524B19404D
:10255000D2B21204039BD21801235D06031D11435E
:1025600029431960618D002940D020463946324602
:1025700001F0B6FC002862D12068616A0A788262A4
:10258000628D521E6285491C6162218D491E218522
:10259000628D002AE6D00904E4D18169090619D4C4
:1025A000791C0BD0002F5FD0FFF7E2FD801BB842F3
:1025B0005CD8206881690906F6D50BE081690906B7
:1025C00008D48169090605D48169090602D48169A4
:1025D0000906F3D5618D090AB5D0FF21218542682E
:1025E0002D490A40031D03992C4DB8E78169202528
:1025F0002940002F1AD0002924D1204639463246DE
:1026000001F066FB00281AD1FFF7B2FD801BB8422B
:1026100023D8206881698906EFD513E0606C2021FA
:10262000084360640498417001461BE0002909D109
:1026300000212046324601F04BFB00280BD0012040
:1026400005B0F0BDC5614168154A0A404260049971
:102650004D70009812E0FFF78BFD606C28436064BA
:1026600004994D70029809E0FFF782FD606C20210B
:1026700008436064049841700146012000220A70FA
:102680008A7005B0F0BDC046FF030000009800FC52
:10269000002000020020FF01009C00FC0000FF0160
:1026A00000E800FE10B586B000681349884201D0EA
:1026B00006B010BD114C206802210843206020683C
:1026C00008400090062005900020049003901220FE
:1026D00002900320800201900098094801A9FFF7A9
:1026E00057FC01208005A1680143A160A168014059
:1026F0000091009806B010BD005800403410024010
:10270000000400501F48007802490A681018086049
:102710007047C0466402002010B501242002084919
:102720000A6802430A60032000F00CF8002801D078
:10273000204610BD00F028F80024204610BDC046F9
:102740000020024070B50F4E31780124002916D0C8
:1027500005467D20C00002F065FE0146494800683C
:1027600002F060FE01F0E8F8032D08D8002806D139
:102770000024E0432946224600F028F875602046F0
:1027800070BDC0460000002082B0094841680122A7
:10279000114341604168114001910199110702689C
:1027A0000A430260006808400090009802B0704739
:1027B0003C100240002805D41F210840012181401F
:1027C000014801607047C04600E100E0002805D4E0
:1027D0000322034693430C4A9A1806E00F22024054
:1027E000083A03239A43074BD2188007C00E890189
:1027F000C9B28140FF2383401068984308431060AA
:102800007047C0461CED00E000E400E0F0B581B088
:10281000032569021A4E3246143A13688B43034368
:102820001360012461020022884226D1F348016826
:102830003068400521D50092A7020620484312497E
:1028400002F0F0FD201A022816D0316839420FD06C
:10285000012811D0316839420AD000280CD03168E3
:10286000394205D0001D032806D031683942EAD12B
:10287000009A104601B0F0BD2A46104601B0F0BDE6
:10288000147000400800002040420F00F0B587B0EF
:1028900081788907584F01D4002650E00590012324
:1028A00019073A46203A10680840049006D110688B
:1028B0000843106010680840069006980292039141
:1028C00001931E024D4C206830432060FFF750FCFE
:1028D0000546206830420AD1FFF74AFC401B022817
:1028E000F7D9032605980499002923D027E003206F
:1028F000054601023868084011D0059949698842A7
:102900000BD03868019909043A680A433A603A687A
:102910008A433A603A4908403860C0075AD13A6859
:1029200037480240059841691143396000260499EF
:10293000002904D1029B1968039A91431960056824
:10294000E90705D1A9060DD401216A0416D42BE0AC
:10295000394608390A6803239A43436813430B60D6
:10296000A906F1D5032109033A46083A13688B43B7
:1029700081681943116001216A0415D53A46083A65
:102980001368204C23400C463146066933431360DC
:102990001C4A521C96420E46214605D10A043B466B
:1029A000503B1C6814431C602A0510D58D0303227C
:1029B00092033B46083B1C689443C26814431C6066
:1029C000AA4204D10804503F3968014339603046B7
:1029D00007B0F0BDFFF7CCFB0646864C3868800791
:1029E0009DD4FFF7C5FB801BA042F7D905982E4662
:1029F000049900299ED0A2E75C10024000700040BC
:102A0000FFFCFFFFFFFFFF3FF0B583B00D46012144
:102A100000281BD0019102907548006807242040CF
:102A2000A84216D272490868A04328430860714E34
:102A3000FFF79EFB07466E4800682040A84208D07A
:102A4000FFF796FBC01BB042F5D90321084603B03F
:102A5000F0BD029E30688107924B0CD5410703D52B
:102A600021031A680A431A600F2109021A688A436F
:102A7000B16811431960C0071BD15D480068204050
:102A8000A8422CD95A490868A04328430860594FE6
:102A9000FFF76EFB0646564800682040A8421ED04D
:102AA000FFF766FB801BB842F5D90321084603B047
:102AB000F0BD0298406803285DD8810001A25158FA
:102AC0008F46C046D52A00087B2B0008852B0008BE
:102AD0008F2B0008194608390968490559E0029A00
:102AE000107840076F4B05D5200319688143D068E3
:102AF0000843186018688006400F22D01A683821F1
:102B00000A406948082A23D01A680A40102A5ED170
:102B1000596803220A40032A00D0644859684906CC
:102B2000490F491C02F07EFC5E4949684904490E80
:102B300048435C494968490F491C02F073FC594BF2
:102B400006E01846083800688004410F5748C8401E
:102B5000196889093C220A40274989581F220A40DE
:102B6000D0402F49086026480068FFF7EBFD01467A
:102B7000084603B0F0BD596D0AE0194608390968E6
:102B8000890306E0194608390968890101E0996D51
:102B90008907019900D459E71968A14301431960D5
:102BA000144FFFF7E5FA06463E4800683821014019
:102BB00002984068C000814200D15EE7FFF7D8FA72
:102BC000801BB842F0D90321084603B0F0BD186855
:102BD0000840202802D10120C003B9E71868084046
:102BE000182801D00020B3E77D200002B0E7C046DE
:102BF00000200240881300006065000808000020E3
:102C0000040000200648006826490968890A1C2239
:102C10000A40044989581F220A40D0407047C046E4
:102C200008000020A065000810B51E4C2068800632
:102C3000400F06D0226838210A401B48082A07D1D5
:102C400010BD083C20688004410F1848C84010BDE2
:102C500022680A40102A15D1616803220A40032A1B
:102C600000D0124861684906490F491C02F0DAFB9E
:102C700061684904490E48436168490F491C02F0E4
:102C8000D1FB10BD20680840202802D10120C003DC
:102C900010BD20680840182801D0002010BD7D20FC
:102CA000000210BD0810024000127A000024F40057
:102CB000F0B587B00125002800D1ECE1049505901E
:102CC0000078C007F94F2AD0B868F96803252A466A
:102CD0008A43382101401020484082185042504118
:102CE000082914D0002812D1059842680120010457
:102CF0008A4208D005231B049A4200D0DAE08204FD
:102D00003B6813433B603A680A433A60DBE038684B
:102D1000800304D505984068002800D173E1059828
:102D20000078800723D40598007800070CD5B86890
:102D300038210140182971D1386E800704D50598D3
:102D40008069002800D15EE1059A1078400700D420
:102D50002EE1B86838210140202974D1F86D800730
:102D600000D425E19068002800D021E14BE1B9684A
:102D70003820084010214140FA6803252A400223E8
:102D80005340CA1851425141002820D000291ED179
:102D90003868059AD168002900D1A2E00721C9024C
:102DA0008843116901433960012001023A680A43EE
:102DB0003A608402FFF7DCF906463868204200D00A
:102DC000A1E0FFF7D5F9801B0228F6D963E1396845
:102DD0004905059B03D5D968002900D113E17F215E
:102DE00009027A688A435969090211437960002807
:102DF0000DD10720C0023968814318690843386043
:102E000038688004400FAA49C140AA480160AA4816
:102E10000068FFF797FC002885D0F4E0386E05992C
:102E20008969002979D0012108433866FFF7A0F9A4
:102E30000646386E800787D4FFF79AF9801B032572
:102E40000228F6D927E1012003900107F86B08401A
:102E5000029006D1F86B0843F863F86B08400690BF
:102E60000698019195480068C00513D403980402A0
:102E70009249086820430860FFF77AF906468F48B0
:102E80000068204206D1FFF773F9801B0325022852
:102E9000F5D900E105988068894C012805D00528FE
:102EA0005AD1F86D04210143F965F86D039908437F
:102EB000F8655BE03B688B433B6081043B688B4378
:102EC0003B60002A3AD04404FFF752F906463868BE
:102ED000204200D023E7FFF74BF9801B6428F6D986
:102EE000D9E001210A02904338608C02FFF740F9D3
:102EF00006463868204200D115E7FFF739F9801BF4
:102F00000228F6D9C7E07F2000027968814305983E
:102F1000406900020843786005E70121884338666C
:102F2000FFF726F90646386E800700D40CE7FFF756
:102F30001FF9801B03250228F5D9ACE04404FFF7F4
:102F400017F906463868204200D1E8E6FFF710F985
:102F5000801B6428F6D99EE0F96D039A9143F965C8
:102F6000F96D04229143F96500280CD0FFF700F9B0
:102F70000646F86D800713D4FFF7FAF8801B032587
:102F8000A042F6D987E0FFF7F3F80646F86D800710
:102F900006D5FFF7EDF8801B0325A042F6D97AE0AD
:102FA00002980028059A03D1F86B01998843F863C9
:102FB000D469002C76D0B86838210140102926D178
:102FC000012C20D0F86803210140059B1A6A914228
:102FD00019D1702101405A6A914214D17F2109020E
:102FE00001409A6A120291420DD11F214904014009
:102FF000DA6A9142049D4ED1072149070840196BB6
:10300000884248D14EE0049D284607B0F0BD012516
:1030100029063868049188433860FFF7A9F8064606
:10302000022C0BD103956C063868204211D0FFF7B3
:103030009FF8801B03250228F6D92CE06C0638681F
:1030400020422BD0FFF794F8801B03250228F6D9E5
:1030500021E0F8681C490140059E20366DCE0843EA
:1030600010431902014329433143F9603868049938
:103070000843386003980007F9680143F960FFF7D7
:1030800077F80646386820420CD1FFF771F8801BAC
:1030900003250228F6D9284607B0F0BDF86809498B
:1030A0000140F9600025284607B0F0BD001002403D
:1030B0000024F400080000200400002000700040FC
:1030C00088130000FCFFFEEF8C80C11F5D21405C77
:1030D00070470000F0B585B000280CD004460546C6
:1030E0005C3541208600606A002807D000202061FE
:1030F0002046143007E0012005B0F0BD6068B04202
:1031000003D020461C30002101600027A7626878A8
:10311000002804D100202870204600F059F8022031
:1031200004950190687020680168402291430390E3
:103130000160E168254A012591422A4600D33A46BA
:103140001203ED020D430F2738020290854201D091
:103150000025A5626568A768354021239B023B4096
:103160005B192569019805401D43606901231840DA
:103170002843FC36A7693E400643E06938250540F0
:103180003543206A802606402E435803A56A054031
:103190003543039E3560380C0425054002980140F4
:1031A0000A432A43606A102101401143606B0822E0
:1031B00002400A437260D802F1698143F161002044
:1031C000206604994B7005B0F0BDC04601070000B1
:1031D00080B586B000681249884201D006B080BD33
:1031E000012001030F4AD3680B43D360D3680B401F
:1031F0000193019911680143116011680140009128
:10320000002005900490039002200290E02001909D
:1032100005200007009901A9FEF7BAFE06B080BD9F
:103220000030014034100240F0B587B017460E461A
:103230000546412081002C4644346868884203D109
:10324000A868002800D185E0207E012802D1022054
:1032500007B0F0BD03A88AC001272776FEF788FFD4
:103260000690607E012873D1002E3846059900D162
:10327000E1E00029384600D1DDE0029704206076C5
:10328000002028666180E8872E642180A887A863D3
:10329000E864286507210902EA68012305918A424A
:1032A0001E4600D9064636031F0328684168B94305
:1032B00089194160D903AB688B4208D1016840236A
:1032C000994301600121890303688B43036001680E
:1032D0004906049E039F03D4016840230B43036007
:1032E0000599491C8A4240D2618800296ED0711C20
:1032F0001BD08168C90706D1FEF73AFF0699401A2C
:10330000B04209D39CE0007B296C0870286C401CFB
:1033100028646088401E60806088002856D0286835
:103320008168C907E8D0EEE728688168C90702D13B
:10333000FEF71EFF08E0007B296C0870286C401C1B
:1033400028646088401E608060880028ECD13DE0E1
:10335000022070E004206076009328463146324611
:103360003B4600F079F907B0F0BD618800292DD007
:10337000711C1AD08168C90706D1FEF7F9FE0699BB
:10338000401AB04208D35BE0296CC0680880881CF2
:1033900028646088401E60806088002816D02868F5
:1033A0008168C907E9D0EFE728688168C90702D1B9
:1033B000FEF7DEFE07E0296CC0680880881C2864E0
:1033C0006088401E608060880028EDD16868B8423F
:1033D0000CD1A8680121CA03904202D08902884218
:1033E00004D1286801684022914301602846314693
:1033F000069A00F073FF002805D0286E20210843AC
:103400002866296613E06868B84210D1A8680121CF
:10341000CA03904202D08902884208D103204102A7
:1034200028463246069B00F0A9FE0028E5D1286E0A
:10343000411E8841029F00212176677607B0F0BDCA
:103440000320F7E7F0B587B004465C20205C012834
:1034500003D10227384607B0F0BD15460591039306
:103460002746443701263E76FEF782FE3946029013
:10347000787E012877D1059800283746324600D15A
:10348000E1E0002D174600D1DDE0049203274F76DE
:1034900000202066E587A587059AA263206408803E
:1034A000E064206501910090488020680121CA03F2
:1034B000A368934207D1026840239A4302608903BC
:1034C00002680A43026001684906039E03D401684A
:1034D00040220A43026061684A424A416B1E5942D7
:1034E00059411143E2685B4B9A423FD3002907D010
:1034F000059A1188C160911CA163E18F491EE18783
:10350000E18F0029029D70D0711C1AD08168890753
:1035100006D4FEF72DFE049A401BB04208D34DE0BE
:10352000A16B0A88C260881CA063E08F401EE08700
:10353000E08F002859D0206881688907E9D5EFE736
:1035400020688168890702D4FEF712FE07E0A16BAC
:103550000A88C260881CA063E08F401EE087E08F6D
:103560000028EDD141E0022732466CE0002908D066
:10357000059909780173A06B401CA063E08F401E81
:10358000E087E08F0028029D2FD0701C0CD11CE03A
:10359000A16B09780173A06B401CA063E08F401EF3
:1035A000E087E08F002820D0206881688907EFD469
:1035B000FEF7DEFD049A401BB042F2D3019942E0CF
:1035C000FEF7D6FDE08F00280FD0206881688907BC
:1035D000F6D5A16B09780173A06B401CA063E08F46
:1035E000401EE087E08F0028EFD12F460325E90237
:1035F000204632463B4600F0C1FD00280ED1204651
:1036000031463A4600F06AFE002807D1690220469A
:1036100032463B4600F0B2FD002804D0206E202147
:10362000084320662166A068002807D1009806900C
:103630002068C1680691806806900698276E781EFB
:1036400087410199049A002008764A76384607B0E7
:10365000F0BDC04601070000F0B585B004465C200F
:10366000205C012802D1022005B0F0BD1D46029267
:1036700003912746443701263E76FEF779FD324610
:103680000646797E012900D0ABE003980028104659
:1036900000D148E102980028104600D143E1002DF6
:1036A000104600D13FE10192787E042801D0052028
:1036B0007876002323667D80E587E1689D4A0120B6
:1036C00000919142024600D31A4604961603010364
:1036D000206842688A4391194160029921643D80C3
:1036E0000399A163E3642365A5870168490603D4B0
:1036F000016840220A4302600A9E61684A424A41C8
:10370000691E4B424B41134300998A4A914279D337
:10371000002B07D0039A1188C160901CA063E08F32
:10372000401EE0870125701C32D101E0FEF720FD2C
:10373000E08F002803D17888002800D1CFE02068EE
:10374000816889070DD5E18F00290AD0012D08D1A4
:10375000A16B0A88C260891CA163E18F491EE187C1
:1037600000258168C907E1D079880029DED0216C65
:10377000C0680880881C20647888401E78800125F5
:10378000D4E7FEF7F5FC0499401AB04200D3C8E034
:10379000E08F002803D17888002800D19FE02068BE
:1037A000816889070DD5E18F00290AD0012D08D144
:1037B000A16B0A88C260891CA163E18F491EE18761
:1037C00000258168C907DCD079880029D9D0216C0F
:1037D000C0680880881C20647888401E7880012595
:1037E000CFE701924120820063680220934200D01B
:1037F00098E0A268002A00D094E00429019A00D140
:1038000043E790E0002B08D0039909780173A06B7F
:10381000401CA063E08F401EE0870125701C33D15F
:1038200001E0FEF7A5FCE08F002802D1788800288F
:1038300055D02068816889070FD5E18F00290CD009
:10384000012D0AD1A16B09780173A06B401CA06304
:10385000E08F401EE087206800258168C907E0D01E
:1038600079880029DDD0007B216C0870206C401C19
:1038700020647888401E78800125D2E7FEF778FC26
:103880000499401AB0424CD2E08F002802D17888C7
:10389000002824D02068816889070FD5E18F00298E
:1038A0000CD0012D0AD1A16B09780173A06B401CCB
:1038B000A063E08F401EE087206800258168C9076B
:1038C000DCD079880029D9D0007B216C0870206C6D
:1038D000401C20647888401E78800125CEE70320B4
:1038E0000390C10220463246049D2B4600F046FC60
:1038F00000280FD1204631462A4600F0EFFC002870
:1039000008D103984102204632462B4600F036FC8F
:1039100000280DD0206E202108432066216601205A
:1039200000E00320019A002139767A7605B0F0BDD7
:103930000020F7E701070000401E010E01D0012022
:1039400070470749074A5060074803680B40032146
:1039500089075918016000209060072111607047A5
:10396000FFFFFF0010E000E020ED00E0B0B5802197
:10397000415C012901D10220B0BD024680322421E0
:10398000516001680B680C680125AC430C606C0742
:10399000A3430B600021416611702020506008464F
:1039A000B0BD0000F0B581B08022825C012A02D156
:1039B000022001B0F0BD054668352422EA610668A0
:1039C000376832680124A243326007225206B36886
:1039D00093430B43B360406E0028204615D00097F8
:1039E000B768B068400F2B49095C2B4A105CC000D7
:1039F00001F018FD04463801009F400F2549095C7D
:103A0000254A105CC00001F00DFD28806C803760F5
:103A1000002028762021E96101B0F0BDF0B581B029
:103A20008022825C012A02D1022001B0F0BD05464D
:103A300068352422EA610668376832680124A243A7
:103A4000326007225207B36893430B43B360406E62
:103A50000028204615D00097B768B068400F0D4980
:103A6000095C0D4A105CC00001F0DCFC0446380122
:103A7000009F400F0749095C074A105CC00001F035
:103A8000D1FC28806C803760002028762021E961F5
:103A900001B0F0BD00660008F8650008F0B583B01D
:103AA000002841D00446074680377868002804D1B2
:103AB00000203870204600F057F8242078602068F5
:103AC00001680125A9430160204600F027FD012877
:103AD00027D0A06A002802D0204600F0B5FC0920BB
:103AE000C00221684A6882434A6088682A2290435B
:103AF000886008680126304308600025FD60FEF7F5
:103B000037FB034620680168090713D51548009064
:103B1000710500222046029300F0B6FD002807D070
:103B20000325284603B0F0BD0125284603B0F0BDAB
:103B30002068029B006840070CD50A480090B10538
:103B40000022204600F0A0FD002803D003252846CF
:103B500003B0F0BD20207860B8603D70E56628466F
:103B600003B0F0BDFFFFFF0180B586B000681349C8
:103B7000884201D006B080BD1148C268012105917C
:103B80008B031A43C260C2681A400092009A02680E
:103B90000A430260006808400090002004900390EF
:103BA00002200290032040020190052000070099A6
:103BB00001A9FEF7EDF906B080BDC046003801400E
:103BC00034100240F0B587B00E46044684202158D8
:103BD0000220202911D10125002E19D00492002A9B
:103BE00016D001210D03A268AA420AD1F20708D01B
:103BF0002269002A05D10D460AE00546284607B08D
:103C0000F0BD0395274680373A78012A054602D150
:103C1000284607B0F0BD05933A462746543700259D
:103C2000D5601170212002925060FEF7A1FA069033
:103C3000049878803880A068039988420AD1206966
:103C40000028049601D0002104910028059903D191
:103C5000064601E004950599029805700CE0049A67
:103C600010881949084021688862921C04922E46E7
:103C700005997888401E78807888002810D00091B7
:103C80008021002520462A46069B00F0FDFC0028E6
:103C900010D1002EE3D0307821688862761CE7E7E7
:103CA00000914021002520462A46069B00F0ECFCAE
:103CB000002803D00325284607B0F0BD2020029934
:103CC0004860284607B0F0BDFF010000FEE7000095
:103CD000F0B585B00446403004902768B869C00646
:103CE00006D4002006460123BA69D5055ED472E0E9
:103CF0001020F861B869800665D4481C4AD0164681
:103D00000391012001908003029004E0B869202211
:103D100002402A4342D1FEF72BFA27680025039977
:103D2000002902D0801B8842F0D97A6804988078F4
:103D3000BB691B040CD502990A4009D1202807D081
:103D40007868029908437860FEF712FA06462768F9
:103D5000B8698006DAD4002503E02768B8698006D0
:103D6000D4D4FEF705FA801B1A28F6D3606C202104
:103D700008436064049A517000201070907001250F
:103D8000EBE7B86980061ED4B86980061BD4B86911
:103D9000800618D4B8698006F3D514E0002D12D03F
:103DA0000420019E0123BA69D50514D51D02FD61C9
:103DB000184301935D02560511D59B02FB61083043
:103DC0002A4214D116E02020F861012604200123A4
:103DD000BA69D505EAD401965D025605EDD42A42AA
:103DE00005D1019A002A05D1002005B0F0BDFD6182
:103DF00002221043BA69920701D50022BA62BA6959
:103E0000D20703D1BA6901231343BB617A68334BEC
:103E100013407B60616C0143616420200499487009
:103E2000002008708870012005B0F0BDF0B581B0A9
:103E30001546044607464037002915D00E4620682F
:103E40008069400730D4204631462A46FFF740FFBC
:103E5000002814D12068816989061FD4FEF788F9EB
:103E6000401BB042EBD913E02068806940071BD4A7
:103E7000002120462A46FFF72BFF002802D0012010
:103E800001B0F0BD20688169890607D4FEF770F99A
:103E9000606C202108436064797019E081694907EA
:103EA00005D5218D002902D0002001B0F0BD826926
:103EB0000021D2060A4602D51022C26104226264A1
:103EC0002022C2614368054C1C4044607A70B9707E
:103ED00000203870012001B0F0BDC04600E800FEAF
:103EE000F0B581B00446006880690025800711D4D0
:103EF00016460F46002921D0781C17D10025E9432A
:103F000020463246FFF7E4FE00281ED12068806973
:103F10008007F3D5284601B0F0BDFEF729F9801BD4
:103F2000B84218D8206880698007F3D42046394603
:103F30003246FFF7CDFE0028EFD006E000212046F4
:103F40003246FFF7C5FE002803D00125284601B000
:103F5000F0BDFEF70DF920464030616C2022114380
:103F6000616442700021017081700125284601B012
:103F7000F0BD0000F0B589B000240894394801680C
:103F800020221143016001681140039103990168E7
:103F900001252943016001682940039103990168C3
:103FA00002220292114301600168114003910399BA
:103FB000016808263143016000683040039003988F
:103FC000052000070190182739462A46FEF7C7F852
:103FD000254829462246FEF7C2F8244831462A469B
:103FE000FEF7BDF80720C10120482246FEF7B7F8CA
:103FF0000326079606940595049704AF0198394661
:10400000FDF7C6FF069405940298049017483946B8
:10401000FDF7BEFF079606940595049512483946AC
:10402000FDF7B6FF069421200004059004200490BB
:104030000D483946FDF7ACFF0796069405957120AB
:10404000C000049009483946FDF7A2FF0626304615
:1040500029462246FEF7BAFB3046FEF7ABFB09B015
:10406000F0BDC04634100240000C00500004005067
:1040700010B5124800210122114B124C046043601C
:104080008160C260016141618161C1610162FEF7CD
:10409000B9F8002801D0FDF74CFF08480021FEF7D1
:1040A0006DF8002801D0FDF744FF04480021FEF719
:1040B00087F8002801D0FDF73CFF10BDBC000020B0
:1040C000BC7D701000580040B0B50F480822002198
:1040D0000723016241628162C3620163426310226D
:1040E0000A4C1B024125AD0030C0FC350160436025
:1040F0008160C160056142610838FEF7EBFF00286E
:1041000001D0FDF716FFB0BD0801002000300140CE
:1041100010B5174800210C22164B016241628162E2
:10412000E124640218C0016041608160C2600161E5
:1041300041610838FFF7B2FC002801D0FDF7F9FE15
:104140000B480021FFF76AFC002801D0FDF7F1FEC3
:1041500007480021FFF726FC002801D0FDF7E9FE03
:104160000348FFF703FC002801D0FDF7E2FE10BD75
:104170006C01002000380140FEE77047F0B587B0C1
:10418000049314460E46054605A800270770FDF760
:10419000EFFF0499081A02940419FDF7E9FF04904F
:1041A0008148006823214143080D60430690039530
:1041B0002D68A868304233D0019703214F0202983E
:1041C000401C30D0BE4200911CD104E0039800682E
:1041D0008068384245D0287B05A908700598FDF70E
:1041E000C7FF0499401AA0423ED206980699491E7C
:1041F00006910028EAD10446E8E703980068806841
:1042000030422ED0FDF7B4FF0499401AA0422BD2C1
:1042100006980699491E06910028EED10446ECE75F
:10422000384607B0F0BDBE4247D1287B05A90870CB
:104230000598A868384214D0287B05A9087005980D
:10424000A86838420DD0287B05A908700598A86891
:10425000384206D0287B05A908700598A86838421E
:10426000E3D1019807B0F0BD039C20684168E022CB
:10427000914341604121890062688A420BD1A16863
:104280000122D303994202D09202914203D10168E4
:1042900040229143016001214A03A36A5C349342A6
:1042A00005D1036893430360036813430360002050
:1042B00020706170009807B0F0BD0199A868304285
:1042C00008D0A868304205D0A868304202D0A8685B
:1042D0003042F3D1084607B0F0BDC046F0B583B018
:1042E00015460F460446FDF743FF281AC519FDF78A
:1042F0003FFF06462C4800684001000D68430290CD
:10430000226891680020090622D5791C1DD00190F1
:1043100027465C3703E020688068000641D5FDF73A
:1043200027FF801BA84215D202980299491E0291CC
:104330000028F0D10546EEE79168090608D5916896
:10434000090605D59168090602D591680906F3D4D6
:1043500003B0F0BD20684168E022914341604121F3
:10436000890062688A420BD1A1680122D303994275
:1043700002D09202914203D1016840229143016030
:1043800001214A03A36A934205D103689343036062
:10439000036813430360002038707970032003B072
:1043A000F0BD019803B0F0BD08000020704780B553
:1043B000FEF7A8F980BD70B598B00025119510954D
:1043C0000F950E950D950C950695059504950395FD
:1043D0000295019501267002FEF718FA70071790F2
:1043E00070041690082015901495022413941294CA
:1043F000402010900F9530020E900B940BA8FEF702
:1044000057FC002803D0EFF3108072B6FEE70A9540
:10441000099507200790089407A82146FEF7F4FAAB
:10442000002803D0EFF3108072B6FEE702950196E4
:1044300001A8FEF72BFA002803D0EFF3108072B624
:10444000FEE718B070BD7047B0B5816ACA070CD1DD
:104450008A0714D44A071CD40A0724D4CA062CD4C9
:104460008A0634D44A063CD44CE001225204036844
:104470005C689443C26A22435A608A07EAD50122E3
:10448000120403685C689443026B22435A604A0733
:10449000E2D50122920403685C689443426B224394
:1044A0005A600A07DAD50122D20303685C68944394
:1044B000826B22435A60CA06D2D5012212030368D6
:1044C0009C689443C26B22439A608A06CAD5012233
:1044D000520303689C689443026C22439A604A0624
:1044E00010D501221305026854689C43456C2C4387
:1044F00054609D4206D103235B0554689C43836C42
:1045000023435360090607D50121C9040268536893
:104510008B43C06C18435060B0BD0000F0B581B053
:104520000446006801684B4B0B40A16822690A43AE
:1045300061691143E26911431943016003210903D1
:1045400043688B43E16819434160A169236A0B43C7
:104550008168414D0D401D438560C36A0F218B4327
:10456000616A0B43C3623D4B984209D03C4B984271
:1045700008D13C4800688007000F3BA31F5802E0A9
:10458000002700E01027264668360125EB033A484D
:104590009A4210D1082F55D87F443F797F00BF44FD
:1045A000045123511C5151512200FEF72BFB0028CE
:1045B00017D0616A18E0082F44D8C0467F443F797D
:1045C0007F00BF44043F2D3F263F3F3F2C00FEF7B6
:1045D00019FB002821D0616A22E0FEF725FB0028A4
:1045E000E7D100252EE018464900244A515A00F030
:1045F00019FF400061684A08101800F013FF0246D6
:10460000103A1F498A421DD201400007400F08435B
:1046100015E0FEF709FB0028DDD1002512E0184661
:104620004900164A515A00F0FDFE61684A08101808
:1046300000F0F8FE01461039114A914202D2216879
:10464000C86000250F48306000202067606728465A
:1046500001B0F0BDF369FFCFFFF4FF11004400404B
:104660000038014054100240000000000400000027
:1046700002000000080000000024F400C0650008EB
:10468000F0FF000001000100F0B587B015460E46AE
:1046900004460768F9693140891B4A424A410020B3
:1046A000AA4224D106930494224680320C9C002C0A
:1046B0001FD0611C44D1F9693140891B4A424A41EB
:1046C000AA4214D1F9693140891B4A424A41AA429F
:1046D0000DD1F9693140891B4A424A41AA4206D1AB
:1046E000F9693140891B4A424A41AA42E3D007B0E6
:1046F000F0BD0392FDF73CFD049FEFF31081012014
:1047000080F310880D2252013B681C6894431C60A2
:1047100081F31088EFF3108180F310883A68936872
:104720008343936081F310882020039A50601046E1
:1047300008300021117020210160032007B0F0BD76
:104740000392029001200190C0020590049F06E0B0
:10475000C0693040801B41424141A9422DD1FDF743
:1047600007FD0699401AA042C7D838680168490772
:10477000EED5C169059A1142EAD005990162EFF3BD
:104780001080019C84F310880D2149013A68136858
:104790008B43136080F31088EFF3108084F310884C
:1047A00039688A68A2438A6080F310882020039ABF
:1047B0005060906010460C30BBE7029807B0F0BD27
:1047C000F0B589B00491039005AF00263E810696AE
:1047D00005962548089064240094A648702508AAE8
:1047E00003232946FDF758FE2046FDF7A7FB00945A
:1047F0000623A04829463A46FDF758FDB857002839
:104800002FD405AD28790002E97802910907090B38
:10481000081869794018FCF70FFB144901F03AFDBC
:104820006B21CF05394601F035FD114901F0ECFC53
:10483000AC786D7801260399324600F033F902987E
:1048400000092903081821014018FCF7F5FA094965
:1048500001F020FD394601F01DFD0499324600F0BB
:1048600021F9304609B0F0BDAC33000000004843E8
:10487000000048C20000C842F0B585B004460020E0
:104880000390029004AA022010707D2087000097F8
:10489000784DB426012328463146FDF7FDFD0097EB
:1048A00002AF0823284631463A46FDF7FFFC03983D
:1048B0002071029840BA2080788840BA608005B0A4
:1048C000F0BDC046F0B583B002AA10707D24A700E9
:1048D00000976848B425012629463346FDF7DCFDDC
:1048E000009701AF634829463A463346FDF7DEFCA0
:1048F0003A78614D61492846FBF7F2FC2846FBF700
:104900004DFFE30082B25E482946FFF75BF903B032
:10491000F0BDC046F0B583B002AA002010707D2023
:1049200087000097534CB42501262046294633467C
:10493000FDF7B2FD009701AF204629463A463346BF
:10494000FDF7B4FC387803B0F0BDC046F0B58BB0CD
:1049500006AAF42010707D20029085000095454E37
:10496000B4270124304639462346FDF795FD6420DF
:10497000FDF7E4FA07AA0020019010700095304678
:1049800039462346FDF788FD0395009504AD304672
:1049900039462A462346FDF789FC2A78364E3749A0
:1049A0003046FBF79DFC3046FBF7F8FE0299CB0042
:1049B00082B2334831460293FFF704F92878002881
:1049C00022D008AAE0201070039C00942948B42645
:1049D000012731463B46FDF75FFD009404AD2548B5
:1049E00031462A463B46FDF761FC2A78224D25A137
:1049F0002846FBF775FC2846FBF7D0FE82B220481C
:104A00002946029BFFF7DEF809AA20201070039EBA
:104A10000096184FB4240125384621462B46FDF751
:104A20003BFD009605AE3846214632462B46FDF743
:104A30003DFC3278104C17A12046FBF751FC204674
:104A4000FBF7ACFE82B20E482146029BFFF7BAF894
:104A5000307881280CD10AAA102050701570019866
:104A60009070039800900348B4210223FDF714FDD1
:104A70000BB0F0BDBC000020FC0100203466000833
:104A80006C0100206572726F723A20253032780D09
:104A90000A00000068775F69643A20253032780D9B
:104AA0000A000000F0B585B002920E460390FCF7B4
:104AB00079F900284AD00027019004460A252046AB
:104AC000294600F0D1FC4543611B3031F1557F1C74
:104AD0000934132C0446F1D2781E3BD03278317061
:104AE000F119491E0A70032835D3791F05203218A1
:104AF000141F237804937318DD782570049CDC70F0
:104B00008C1CC51EA54226DAD41E257804959D78F6
:104B10002570049C9C704C1C851EA5421BDA941EBB
:104B2000257804955D782570049C5C70431E8B424B
:104B300011DA521E1378745C14707354021D0B1F2B
:104B4000491E884210461946D1DB04E030213170FD
:104B5000012701E0012701980021F155029C002C5A
:104B600000D1B6E0F5192E212970FCF765F9014650
:104B7000039801F0E7FBFCF7EBF806460F462046EA
:104B8000FBF7B7FF02460B4600205349009000F0A8
:104B9000E3FD32463B46FBF7B7FFFBF74BFFFCF765
:104BA00001F90395691C0028019144D007460226AB
:104BB0000A243846214600F057FC05463346039E3A
:104BC000F218501E6C43391B3031017038460930E1
:104BD000132838D304920A2128461C46FBF738FED6
:104BE0003031315526466421384600F03DFC093508
:104BF000132D2DD304460A21FBF72AFE30310498E9
:104C000041707D20C100384600F02EFC0934132C81
:104C100027D305460A21FBF71BFE3031049881702B
:104C200038462E4900F020FC0746361D0935132D65
:104C3000BED2B31E16E0302008700123039E274623
:104C4000BB420ADA12E05B1E029FBB4205DA0DE0AE
:104C5000029F3346039EBB4208DB1F46022F0DD244
:104C600034E0731C029F039EBB42F6DA0198C01821
:104C7000F91A3022FBF7B4FD022F27D3391F022087
:104C80003218541E257873181E792670039E1D71E4
:104C90008C1C451EA54219DA345CDD783554DC7075
:104CA0004C1CA04212DA54789D7855709C70441CBC
:104CB0008C420BDA94785D7895705C70021D0B1F46
:104CC000491E801C884210461946D9DB019800997C
:104CD000C15505B0F0BDC0460000244010270000BB
:104CE00080B5132100F012F987490978401AC0B243
:104CF00080BDC046B0B504460125294600F006F93E
:104D000003210140032914D001218122204600F013
:104D100053F91D217222204600F04EF90D21002585
:104D200020462A4600F048F9222120462A4600F073
:104D300043F92846B0BD70B50546012483222146BB
:104D400000F03AF964261221284600F0DFF8000747
:104D500007D4761E3006F6D12046FDF7EFF8204640
:104D600070BD12210822284600F026F9002070BDEF
:104D7000F0B581B0044600680188406800252A46E5
:104D8000FDF7EDF90A273846FDF7D8F820680188C5
:104D9000406801263246FDF7E2F93846FDF7CEF8C5
:104DA0004221204600F0B2F812284AD10126802282
:104DB0002046314600F000F92079C00022490A5807
:104DC000530B08184068C004C118D0041F4A2B4672
:104DD000FBF7FEF90746000CC2B20621204600F0A0
:104DE000EBF8380AC2B20721204600F0E5F8FAB223
:104DF0000821204600F0E0F80E2120462A4600F067
:104E0000DBF80F2120462A4600F0D6F80C27204672
:104E1000394600F07BF8032202432046394600F071
:104E2000CBF826210422204600F0C6F809218F2263
:104E3000204600F0C1F881222046314600F0BCF83F
:104E40002E46304601B0F0BDD86500080048E801A4
:104E500070B505461226314600F058F804461D216B
:104E60007222284600F0A8F828463146224600F073
:104E7000A3F860202040402818D11321284600F0D4
:104E800045F806461021284600F040F802460D215C
:104E9000284600F091F801218122284600F08CF884
:104EA000194800210170A00619D516E001212846F5
:104EB00000F02CF8862803D10026A0060FD50CE0C0
:104EC0000D2100262846324600F076F80121862280
:104ED000284600F071F8A00601D50020C6433046F0
:104EE00070BDC04610B50446132100F00FF8064906
:104EF0000A78904201D1002010BD501C087000219A
:104F0000204600F003F810BD6002002070B582B0AA
:104F100004467F20084001AE3070684600220270CF
:104F200021684869098AFDF71AF9206880697D219E
:104F3000CD00012231462B46FEF784FA20688069B5
:104F4000FEF7C4F80128F9D120688069694601227A
:104F50002B46FEF769F920688069FEF7B7F801284B
:104F6000F9D12068018A40690122FDF7F8F8684606
:104F7000007802B070BDF0B581B015460E4604460B
:104F80002221FFF7C3FF4119FF29009000D9C54333
:104F9000EFB2002F07D032780021204600F00CF845
:104FA000761C7F1EF7D100982818C2B22221204615
:104FB00000F002F801B0F0BD70B582B0044601A85F
:104FC0000270802008436E46307021684869098A63
:104FD0000022FDF7C4F8206880697D21CD00012200
:104FE00031462B46FEF72EFA20688069FEF76EF8F0
:104FF0000128F9D12068806901A901222B46FEF71A
:1050000021FA20688069FEF761F80128F9D120684B
:10501000018A40690122FDF7A2F802B070BD0000CC
:10502000F6B056A880242146FBF701FC36A821469D
:10503000FBF7FDFB12A8002404711294FDF76CFB32
:10504000FFF7B9F9FEF796FFFFF712F8FFF73CF804
:10505000FFF75EF8C14D102005210907C04A2B4615
:10506000183307C30820A860E9600E942C71284605
:105070000830286026AC20461A302621FBF7D5FBE5
:10508000B8A021464CC84CC14CC84CC1008808800F
:105090002046FBF783FB7D21CF0082B2B848214632
:1050A0003B46FEF78FFD2846FFF762FE00281BD027
:1050B000B34DAA4E26AC0A20A081B2482890B2482F
:1050C0002790B24826902046FBF768FB82B228461C
:1050D00021463B46FEF776FD3846FCF72FFF30466B
:1050E000FFF746FE0028E5D1A9A026AC21466CC8F2
:1050F0006CC1007808702046FBF750FB82B2A048D4
:1051000021463B46FEF75EFDFFF720FCE020FFF75F
:10511000D9FB01242046FFF7D5FB14A801460A312C
:10512000059101462D310C91014614310A91014639
:105130003C310991014632310B91014623310691F0
:10514000193007900D9460030490844D089702E095
:105150000A20FCF7F3FEFDF70BF80E99401A002920
:1051600002D09249884222D3FDF702F80E900798A8
:105170000699FFF725FBFFF7CDFB00078C4E16D5F0
:105180000FAC2046FFF778FB22880498824200D3B8
:10519000049A64880B983146FBF7A2F88148844250
:1051A00000D3804C099831462246FBF799F802213A
:1051B0007D48FCF7CFFF00280ED105220B987D49D2
:1051C000FBF798FA002807D1052209987A49FBF7DE
:1051D00091FA00280D9C06D00A987849FBF776FAD8
:1051E0000446401E844180216F4F38462246FCF71A
:1051F000B6FF0D9E710238462246FCF7B0FF310221
:1052000038462246FCF7ABFF02213846FCF7A2FFE6
:1052100000280ED105220B986649FBF76BFA00288F
:1052200007D1052209986449FBF764FA002800D1E8
:105230008EE000200C99C8706620887048706F203E
:1052400008702846FFF704FE000681D0089E284615
:10525000FFF746FD002700283C460CD000242846D6
:10526000FFF740FEE1B236AA5054641C2846FFF70F
:1052700037FD0028F3D1E0B236AC275426AF3846CC
:105280004FA12246FBF72CF83846FBF787FA82B28B
:105290003B4839463346FEF795FC2078242800D059
:1052A00059E712A8009036A814AC49A12246059BE4
:1052B000FBF778F94C48C1682046FBF707FA00284D
:1052C00000D148E7059849A1FBF700FA002800D172
:1052D00041E712A90A98FBF73BFA26AC45A0214604
:1052E0008CC88CC1374602880A8080788870204636
:1052F000FBF754FA82B2224E304621463B46FEF777
:1053000061FC2846FFF7F6FC069800900C98019087
:105310000B9802900998039056AC14AA204639A124
:10532000079BFAF7DDFF2046FBF738FAC2B22846A2
:105330002146FFF720FE2846FFF7FDFC2046FBF73D
:105340002DFA82B2304621463B46FEF73BFC02E78F
:1053500000200C9988706E2070E7C04698000020ED
:1053600008010020436F6E6669677572696E672079
:105370004C6F5261206D6F64756C650D0A00000002
:105380006C0100206C65640D204661694C6F5261B0
:105390004C6F526120696E697420646F6E650D0AEE
:1053A00000000000A3040000000400508913000066
:1053B0002E6600080F66000829660008316600089E
:1053C000526563656976653A2025730D0A00000011
:1053D000242C255B5E2C5D2C255B5E2C5D2C255BD7
:1053E0005E2C5D2C2A0000000C0000207265717597
:1053F0006573740053656E642072657175657374AE
:105400003A200000242C25732C726573706F6E7324
:10541000652C25732C25732C25732C25732C257353
:105420002A0D0A0043088B421AD3002203098B423B
:1054300079D3030A8B425ED3030B8B4242D3030C16
:105440008B4227D30902FF2212BA030C8B4202D3EC
:105450001212090203D0030B8B4233D31AE0D3E0BC
:10546000411A8041401C704703460B4371D44308E6
:105470008B42F5D3002203098B4254D3030A8B429B
:1054800039D3030B8B421DD3030C8B4202D39446BA
:105490006EE0090AC30B8B4201D3CB03C01A524101
:1054A000830B8B4201D38B03C01A5241430B8B42B7
:1054B00001D34B03C01A5241030B8B4201D30B03A0
:1054C000C01A5241C30A8B4201D3CB02C01A5241C7
:1054D000830A8B4201D38B02C01A5241430A8B428A
:1054E00001D34B02C01A5241030A8B4201D30B0273
:1054F000C01A5241CDD2C3098B4201D3CB01C01A8D
:10550000524183098B4201D38B01C01A5241430996
:105510008B4201D34B01C01A524103098B4201D384
:105520000B01C01A5241C3088B4201D3CB00C01AF1
:10553000524183088B4201D38B00C01A5241430869
:105540008B4201D34B00C01A5241411A5241100004
:105550007047CA0F00D04942031000D34042534065
:1055600000229C4603098B422DD3030A8B4212D39F
:105570008901FC2212BA030A8B420CD389019211D1
:105580008B4208D3890192118B4204D3890137D011
:10559000921100E08909C3098B4201D3CB01C01AE3
:1055A000524183098B4201D38B01C01A52414309F6
:1055B0008B4201D34B01C01A524103098B4201D3E4
:1055C0000B01C01A5241C3088B4201D3CB00C01A51
:1055D000524183088B4201D38B00C01A5241D9D269
:1055E00043088B4201D34B00C01A5241411A00D2EA
:1055F00001465241104663465B1000D3404270475B
:1056000063465B1000D3404201B50021004201D047
:10561000C9430846C046C04602BD00004900CA0250
:105620000243100000D004204A0D01D00122104393
:10563000044A490D914201D102210843012800D1B9
:1056400005207047FF070000F8B504464F1EC8004C
:105650000838211815461E46086849683A46062348
:105660009A4310D02A463346FBF74EFA3A46D20008
:10567000083AA3181A687F1E5B68FBF749FE0622EA
:105680003B469343EED1022F23D0042F11D0062F97
:105690002FD12A463346FBF737FAE36AA26AFBF7B3
:1056A00037FE2A463346FBF72FFA636A226AFBF776
:1056B0002FFE2A463346FBF727FAE369A269FBF778
:1056C00027FE2A463346FBF71FFA63692269FBF778
:1056D0001FFE2A463346FBF717FAE368A268FBF77A
:1056E00017FE2A463346FBF70FFA63682268FBF77A
:1056F0000FFEF8BD002210B5134610460149FBF716
:1057000037FE10BD0000F03F10B5FBF701FE10BDE5
:10571000002210B5134610461146FBF729FE10BDB6
:1057200010B50721024A00200907FCF745F810BD13
:1057300001030000034A10B500201107FCF73CF8F4
:1057400010BD000001FDFFFF30380A2801D2012002
:105750007047002070470000F0B51FB494B0844635
:105760000C460246179D1698009049006800630099
:10577000490840080393002A01D0012600E00026D2
:105780009E19FB4BF6185B109E422BD36E00009FB8
:105790000196002F00D00127F719F54EF54BBE19E1
:1057A0009E421FD3009E0346F34F334309D03B462E
:1057B0009C4201D1002A04D0039B002A05D0012677
:1057C00004E00020394619B0F0BD00269E19EB4BCD
:1057D0009E4207D8009F019E002F00D00127F61996
:1057E0009E4207D92B4660462146169AFFF78CFF4A
:1057F00019B0F0BD0023002C29DAE14EB04226DAC0
:10580000E04EB04201DB022321E0DB4EB0421EDB62
:10581000DD4E070DBE19142E09DD3427BF1B009E77
:10582000FE400196BE40009FBE420BD00FE0009F9D
:10583000002F0CD11427BF1B0646FE400196BE4028
:10584000864204D1019BDE07F60F02239B1B0E4606
:10585000164318D1002D16DA002C03D0022B01D0EC
:10586000012B06D00220FBF7F7FAFFF743FF19B030
:10587000F0BD0220FBF7F0FAFFF73CFF0122D20750
:10588000514019B0F0BD009E002E61D1BC4EB04217
:1058900020D1BE48844201D1002A08D0B6488142B6
:1058A00009DB002D10DB1698294619B0F0BD002049
:1058B000B14919B0F0BD002D06DA01222946D20700
:1058C0001698514019B0F0BDB1497944086849684B
:1058D00019B0F0BDA84FB84225D1002D1FDA00291C
:1058E00004D0B14212D1002A09D018E0002A72D1A6
:1058F000A349E20F0020D207114319B0F0BD0020E8
:10590000E20F0146D207114319B0F0BDB14206DAE9
:10591000234600203946FBF72BFD19B0F0BD104699
:10592000214619B0F0BDB14212DA0126B607B542E0
:1059300003D1234610461946EFE3964EB54207D1F0
:10594000261E05DB1046314600F0F0FB19B0F0BD15
:1059500067007F081646002A40D100290AD0884AED
:10596000914229D1002C0EDD002D1CDB00201146B8
:1059700019B0F0BD022B16D0002C14D0012B12D17F
:10598000002C14DB0FE0002C28DA002D09DB012BA2
:1059900003D000207A4919B0F0BD00207E4919B02B
:1059A000F0BD012B03D00020014619B0F0BD00204E
:1059B0000121C90719B0F0BD6F4A91420ED1002CE8
:1059C00001DA002B17D0022B06D00020C043FBF7D2
:1059D00090F819B0F0BD7AE20120F8E7E217521C06
:1059E00094461A4307D000220692634C62465B1E1F
:1059F0001A4307D009E00120FBF72EFAFFF788FED3
:105A000019B0F0BD0022614C0692644A90427DDDDF
:105A1000634B644A98420ADD914202DC002D10DBA0
:105A200025E05548814202DB002D0ADC1FE091424F
:105A300002DA002D05DB1AE04F4B994223DD002DE1
:105A400015DD0220FBF708FAFFF76AFE05460E4651
:105A500000224B4B21460698FBF756F8084671008A
:105A60004908C00FC0070143284619B0F0BD022005
:105A7000FBF7F2F9FFF75EFE49004908E20FD20793
:105A8000114319B0F0BD002230463946FBF74DFCFA
:105A9000012205460E46D243FBF78EFE424A434B97
:105AA000FBF74EFC2A463346FBF72EF80022394B13
:105AB000FBF746FC07462A46334601911046194635
:105AC000FBF722F83A46019BFBF71EF80746032036
:105AD00007912A46334640073549FBF715F80191EF
