:020000040800F2
:10000000400800207D01000881290008D52400084F
:1000100000000000000000000000000000000000E0
:10002000000000000000000000000000B52B0008E8
:10003000000000000000000083290008B72B000822
:100040008F010008000000008F0100088F010008E8
:100050008F0100088F0100083F0700088F0100088A
:10006000000000008F0100088F0100088F010008C8
:100070008F0100088F0100088F01000800000000B8
:100080008F01000800000000000000008F01000840
:10009000000000008F0100088F0100088F01000898
:1000A0008F0100088F0100088F0100088F010008F0
:1000B0008F010008000000000000000000000000A8
:1000C00000F002F800F04BF80CA030C808382418F3
:1000D0002D18671EA246AB4654465D46AC4201D180
:1000E00000F03DF87E460F3EB6460FCC0126334267
:1000F00000D0FB1A3343A246AB4618471C3700001A
:100100003C370000103A02D378C878C1FAD85207B9
:1001100001D330C830C101D504680C6070470000BD
:100120000023002400250026103A01D378C1FBD813
:10013000520700D330C100D50B60704710B5642959
:1001400002D100F0FBF810BD782902D100F02CF9A3
:1001500010BD002010BD1FB51FBD10B510BD00F0B3
:10016000BFFA1146FFF7F7FF03F01AF900F0D7FACC
:1001700003B4FFF7F2FF03BC00F0DAFA0748804748
:1001800007480047FEE7FEE7FEE7FEE7FEE7FEE77B
:1001900004480549054A064B704700004F2C0008EB
:1001A000C100000840020020400800204004002058
:1001B00040040020FEB5044610460D46184373D097
:1001C000A6468C460020A41A01469D4167D3664688
:1001D000002701243D46B61A9D4102D313463A46F4
:1001E0002124654676462F04360C3E432D0CB61A64
:1001F0009D4104D3150C1B042B4312041034654697
:1002000076462F06360A3E432D0AB61A9D4104D380
:10021000150E1B022B4312020834654676462F0743
:1002200036093E432D09B61A9D4104D3150F1B0113
:100230002B431201241D65467646AF07B6083E43A0
:10024000AD08B61A9D4104D3950F9B002B43920035
:10025000A41C65467646EF0776083E436D08B61A3D
:100260009D411AD392185B41641C16E00018764633
:1002700065464941B71A9D410191009009D36046F6
:10028000B11A98418E468446009801990025401C79
:100290006941DD0752082A435B08641EE6D57246B1
:1002A000634603B0F0BDFFE72046284307D0002097
:1002B000C0430146C046C04622462B46F1E7002017
:1002C0000146F7E70FB41CB5074B06AA7B44694605
:1002D0000090059800F0D3F90020694600F0E2F99B
:1002E0001CBC08BC04B01847D503000070B5044618
:1002F00085690068C10601D5302600E02026C007C8
:1003000007D070BD62683046A1689047206A401CE3
:1003100020626D1EF6D570BD70B504468569007803
:10032000C00707D170BD6268A16820209047206A8D
:10033000401C20626D1EF6D570BD0000F7B500258B
:1003400075291068009914A611D0C046C04600282F
:1003500002DA404211A608E0009909688A0701D52F
:100360000FA602E0490704D50EA6012501E0C0460C
:10037000C046009F0024243704E000F098F9303193
:100380003955641C0028F8D12B4632462146009886
:1003900000F017F9FEBD0000000000002D00000075
:1003A0002B0000002000000070B504460D462146D9
:1003B0001068C046C0462188090502D50F4A7A4414
:1003C00002E00E4A7A440E3223460021243305E02F
:1003D00006070009360F965D5E54491C0028F7D1C8
:1003E00020780023000705D5702D03D0002901D007
:1003F00002231132204600F0E4F870BD5E330000A5
:10040000F3B50446002081B020622046E1688847A9
:1004100000287DD0252802D06268A16883E0454F7E
:1004200000257F442046E16888472028064608DBEF
:10043000312E06D2B81920380078002801D00543A3
:10044000F0E7A80701D5042085430020E0610746B6
:10045000A0612A2E0AD0304603F05BF9002827D08D
:10046000B8000019303E0090866119E00298BA0089
:10047000121902C8916102902046E1688847012F55
:10048000064617D1E06900281FDA202085431CE0CA
:1004900000980A21806948430099801930388861A2
:1004A0002046E1688847064603F033F90028EFD17B
:1004B000012F0AD02E2E08D12046E1688847064633
:1004C000202005437F1C022FC3DBA069002803DA2C
:1004D0004042A06101200543E80701D01020854378
:1004E000002E24D030464138192803D80120C002FC
:1004F00005432036204625603146029A1546FFF70F
:100500001DFE00280CD0012807D0ED1DE80800E0F2
:100510000DE0C0000830029077E72D1D029574E7CA
:1005200062683046A1689047206A401C6CE7206AE8
:10053000FEBD00002233000030B5441C03E001780A
:10054000401C00290DD08107F9D10B4BDD0104C8F7
:10055000D11A91432940FAD0001B0A0603D0C01ECD
:1005600030BD001B30BD0A0401D0801E30BD090221
:10057000FCD0401E30BD00000101010101E004C0BB
:10058000091F0429FBD28B0701D50280801CC907F3
:1005900000D00270704700290BD0C30702D0027050
:1005A000401C491E022904D3830702D50280801C07
:1005B000891EE3E70022EEE70022DFE7704770477D
:1005C0007047FFB504460D4681B024300090216885
:1005D000880604D51022E0699143216000E00120E3
:1005E000A84201DD471B00E000270498A1697A19A1
:1005F0001018081AA0612078C00602D42046FFF720
:1006000075FE002608E003986268A168805D904747
:10061000206A401C761C206204988642F3DB207816
:10062000C0060AD52046FFF761FE06E06268A168B1
:1006300030209047206A401C206238467F1E0028E8
:10064000F4DC07E000986268A168405D9047206A8A
:10065000401C206228466D1E0028F3DC2046FFF770
:100660005BFE2078000602D5022005B0F0BD012017
:10067000FBE7000001694A1C02610878704700B579
:100680008FB00291002105910549019379440391AE
:10069000114604906846FFF7B3FE0FB000BD00009E
:1006A000E5FFFFFF0A681070521C0A6070470146A0
:1006B0008008081A02091018020A1018020C1018F3
:1006C000C008820012185200891A01E0401C0A3941
:1006D0000A29FBD270470000004870471000002034
:1006E0007546FFF7F9FFAE46050069465346C00858
:1006F000C000854618B020B5FFF74AFD60BCB6467D
:1007000000260027C0C5C0C5C0C5C0C5C0C5C0C57E
:10071000C0C5C0C5403D490849008D46704710B569
:100720000446C046C0462046FFF722FD10BD00002B
:1007300001491820ABBEFEE726000200704780B5D5
:10074000042000F019F880BDEFF3108072B6FEE7C8
:10075000B0B5044600F010F90546601C02D004480C
:100760000078041900F008F9401BA042FAD3B0BD8C
:100770000000002070470000B0B50446074D28680F
:10078000204203D02C60204600F00AF8686820421E
:1007900003D06C602046FFF7EDFFB0BD0C1802409F
:1007A00070470000F0B58CB00B916A4A904201D0BE
:1007B000052200E0032200920B990F68002F00D160
:1007C000C6E00123002635460293099608960A9052
:1007D00013E03A43614802600A980B9A17683A4658
:1007E000DA40361D08355B1C0999891C0991089966
:1007F000491C0891002A00D1AAE0591E029C0791C9
:100800008C402740E9D0069505960B9A516803263F
:100810000D4635406A1E012A04911BD8032209990E
:100820008A400A98806890430B9EF6688E40064383
:100830000A9886600498C006C00F079988400A9EEF
:100840007668A64306430A984660D4430A980899F6
:1008500049000BE0324609998A40D443032D05D163
:10086000099903913546059E049923E0C2680194D5
:1008700022400B9CA4688C401443C460022D039159
:1008800015D11C20059E30400F2282400799CC08CC
:10089000A4000A9D2C19256A95430B990A69824088
:1008A0002A4322620A98496803250D4001E0059E0B
:1008B0000499019C039A9540026822402A430260F1
:1008C0008A03920F069D88D0182028400F25854066
:1008D0000322079991430A9A1F4C6618346EAC4361
:1008E000603605252D07AA4208D01D4DAA4207D023
:1008F0001C4DAA42009D04D1022502E0002500E023
:100900000125854025433560134802680B984068EF
:10091000C40201D53A4300E0BA43059E069D0E4C41
:1009200022606268840201D53A4300E0BA430A4C6F
:1009300062600A4A5268840301D53A4300E0BA4330
:10094000064C62602268C00300D542E7BA4341E723
:100950000CB0F0BD000C005000180240801802409E
:100960000004005000080050002A02D018228150D4
:100970007047282281507047014800687047C04680
:1009800038020020B0B502464120135C0220202B23
:1009900019D1134640331C78012C14D024205870F0
:1009A000106802680124A24302602203056895438F
:1009B000056002680A43026001682143016000206B
:1009C000187020215970B0BDB0B502464120135CAB
:1009D0000220202B19D1134640331C78012C14D04F
:1009E00024205870106802680124A24302600F227C
:1009F00012020568954309022943016001682143F9
:100A000001600020187020215970B0BDF0B581B090
:100A1000002822D00446054640356878002804D1D5
:100A200000202870204600F041FA242068702068D9
:100A3000026801218A4302600F2212066368934311
:100A400003618368194A13408360A368E668012E36
:100A500006D1CE03334383600AE0012001B0F0BD2C
:100A60002127BF023B438360022E01D1CB024360AA
:100A700043680F4E1E434660C3681340C36022693B
:100A800063691343A26912021A43C260E269236ACE
:100A90001343036002680A4302600020606420215F
:100AA00069702063A87001B0F0BDC046FF7FFFFFF2
:100AB00000800002F0B585B00C4605464120295C57
:100AC0000220202900D0E4E0294640310E78012E92
:100AD00000D1DEE00193039201200491029008709E
:100AE000FFF74AFF06462868816909040BD502987A
:100AF000C703FFF741FF801B192800D9B3E028681E
:100B000081693942F5D12221049A517010219170E6
:100B100000216964019A6A85039A6A620191696396
:100B2000698D090ADA4ADB4B07D0144042681A4043
:100B3000001DFF21594B03940AE0698D47681F404F
:100B40001440CAB2120403941219001D524B3C46C1
:100B50000A9F14431C4304602985688D002854D0E3
:100B6000CF4C10E06A8D2A8541682140D2B2120430
:100B7000039BD21801235B06001D1143194301603A
:100B8000688D002841D028463946324601F052FD92
:100B9000002858D1686A2968496A0170688D401E2A
:100BA0006885686A401C6862288D401E2885698DAA
:100BB0000029E5D00004E3D128688169090619D429
:100BC000791C0BD0002F57D0FFF7D6FE801BB84200
:100BD00054D8286881690906F6D50BE081690906B1
:100BE00008D48169090605D48169090602D481699E
:100BF0000906F3D5698D090AB4D0FF212985426819
:100C00002240001D0399A74BB7E7002F10D028689A
:100C1000816989061AD428463946324601F05CFCBF
:100C2000002810D1FFF7A8FE801BB842EFD91AE0C8
:100C300028688169890609D400212846324601F0D6
:100C40004BFC00280DD0012005B0F0BD2021C16172
:100C50004268954B134043600498417001460198E7
:100C600014E0FFF789FE686C20210843686404984B
:100C700041700146029809E0FFF77EFE686C202172
:100C800008436864049841700146012000220A70FC
:100C90008A7005B0F0BDC046002400020024FF01A8
:100CA000F0B585B00D4604464120215C0220202984
:100CB00000D0EAE0214640310E78012E00D1E4E078
:100CC000019303920120049102900870FFF754FEF3
:100CD00006462068816909040BD50298C703FFF70F
:100CE0004BFE801B192800D99CE02068816939429D
:100CF000F5D12121049A5170102191700021616475
:100D0000019A6285039A626200916163618D090AAA
:100D10005F4A604B08D0154042681A40011D01919E
:100D2000FF215E4B03950BE0618D47681F40154026
:100D3000CAB2120403955219031D0193564B3D4646
:100D40000A9F15431D43019A156021850EE0628DAF
:100D500022854168524B1940D2B21204039BD2182B
:100D600001235D06031D114329431960618D00298C
:100D700040D020463946324601F0B6FC002862D108
:100D80002068616A0A788262628D521E6285491CFF
:100D90006162218D491E2185628D002AE6D00904F9
:100DA000E4D18169090619D4791C0BD0002F5FD0DA
:100DB000FFF7E2FD801BB8425CD820688169090614
:100DC000F6D50BE08169090608D48169090605D4C6
:100DD0008169090602D481690906F3D5618D090A82
:100DE000B5D0FF21218542682D490A40031D039992
:100DF0002C4DB8E7816920252940002F1AD0002901
:100E000024D120463946324601F066FB00281AD12B
:100E1000FFF7B2FD801BB84223D82068816989069C
:100E2000EFD513E0606C20210843606404984170A2
:100E300001461BE0002909D100212046324601F07D
:100E40004BFB00280BD0012005B0F0BDC561416807
:100E5000154A0A40426004994D70009812E0FFF76D
:100E60008BFD606C2843606404994D70029809E022
:100E7000FFF782FD606C2021084360640498417094
:100E80000146012000220A708A7005B0F0BDC046FC
:100E9000FF030000009800FC002000020020FF017A
:100EA000009C00FC0000FF0100E800FE10B586B0C9
:100EB00000681349884201D006B010BD114C20686B
:100EC0000221084320602068084000900620059019
:100ED00000200490039012200290032080020190D1
:100EE0000098094801A9FFF75DFC01208005A16871
:100EF0000143A160A16801400091009806B010BDB7
:100F00000058004034100240000400501F48007890
:100F100002490A68101808607047C046380200206D
:100F200010B50124200208490A6802430A60032020
:100F300000F00CF8002801D0204610BD00F028F881
:100F40000024204610BDC0460020024070B50F4E60
:100F500031780124002916D005467D20C00002F01A
:100F6000DDFA01464948006802F0D8FA01F0E8F8D5
:100F7000032D08D8002806D10024E0432946224644
:100F800000F028F87560204670BDC04600000020C3
:100F900082B0094841680122114341604168114013
:100FA00001910199110702680A4302600068084034
:100FB0000090009802B070473C100240002805D411
:100FC0001F21084001218140014801607047C0464F
:100FD00000E100E0002805D40322034693430C4AB5
:100FE0009A1806E00F220240083A03239A43074B5F
:100FF000D2188007C00E8901C9B28140FF23834007
:1010000010689843084310607047C0461CED00E02C
:1010100000E400E0F0B581B0032569021A4E3246C3
:10102000143A13688B4303431360012461020022C6
:10103000884226D1F34801683068400521D50092E6
:10104000A70206204843124902F068FA201A022833
:1010500016D0316839420FD0012811D03168394299
:101060000AD000280CD03168394205D0001D032871
:1010700006D031683942EAD1009A104601B0F0BD7D
:101080002A46104601B0F0BD147000400800002050
:1010900040420F00F0B587B081788907584F01D4DE
:1010A000002650E00590012319073A46203A1068BF
:1010B0000840049006D1106808431060106808408A
:1010C000069006980292039101931E024D4C2068EF
:1010D00030432060FFF750FC0546206830420AD1BB
:1010E000FFF74AFC401B0228F7D90326059804990C
:1010F000002923D027E00320054601023868084074
:1011000011D00599496988420BD0386801990904C2
:101110003A680A433A603A688A433A603A49084072
:101120003860C0075AD13A6837480240059841698B
:101130001143396000260499002904D1029B1968E3
:10114000039A914319600568E90705D1A9060DD4F2
:1011500001216A0416D42BE0394608390A680323B2
:101160009A43436813430B60A906F1D50321090391
:101170003A46083A13688B4381681943116001218C
:101180006A0415D53A46083A1368204C23400C46A9
:1011900031460669334313601C4A521C96420E4680
:1011A000214605D10A043B46503B1C6814431C6091
:1011B0002A0510D58D03032292033B46083B1C6889
:1011C0009443C26814431C60AA4204D10804503FEF
:1011D000396801433960304607B0F0BDFFF7CCFBFA
:1011E0000646864C386880079DD4FFF7C5FB801BF8
:1011F000A042F7D905982E46049900299ED0A2E76F
:101200005C10024000700040FFFCFFFFFFFFFF3F4B
:10121000F0B583B00D46012100281BD0019102904A
:101220007548006807242040A84216D27249086811
:10123000A04328430860714EFFF79EFB07466E48A7
:1012400000682040A84208D0FFF796FBC01BB042C0
:10125000F5D90321084603B0F0BD029E306881072E
:10126000924B0CD5410703D521031A680A431A6033
:101270000F2109021A688A43B16811431960C00737
:101280001BD15D4800682040A8422CD95A49086803
:10129000A04328430860594FFFF76EFB06465648A7
:1012A00000682040A8421ED0FFF766FB801BB842B2
:1012B000F5D90321084603B0F0BD02984068032821
:1012C0005DD8810001A251588F46C046DD1200084A
:1012D000831300088D130008971300081946083976
:1012E0000968490559E0029A107840076F4B05D507
:1012F000200319688143D068084318601868800685
:10130000400F22D01A6838210A406948082A23D0A1
:101310001A680A40102A5ED1596803220A40032A3B
:1013200000D0644859684906490F491C02F0F6F894
:101330005E4949684904490E48435C494968490F78
:10134000491C02F0EBF8594B06E0184608380068D3
:101350008004410F5748C840196889093C220A4057
:10136000274989581F220A40D0402F490860264843
:101370000068FFF7EBFD0146084603B0F0BD596D6C
:101380000AE0194608390968890306E01946083950
:101390000968890101E0996D8907019900D459E72D
:1013A0001968A14301431960144FFFF7E5FA064697
:1013B0003E4800683821014002984068C0008142E0
:1013C00000D15EE7FFF7D8FA801BB842F0D90321BD
:1013D000084603B0F0BD18680840202802D101205B
:1013E000C003B9E718680840182801D00020B3E707
:1013F0007D200002B0E7C0460020024088130000B4
:101400005C3700080800002004000020064800683F
:1014100026490968890A1C220A40044989581F2262
:101420000A40D0407047C046080000209C370008A2
:1014300010B51E4C20688006400F06D02268382167
:101440000A401B48082A07D110BD083C20688004C8
:10145000410F1848C84010BD22680A40102A15D113
:10146000616803220A40032A00D0124861684906D5
:10147000490F491C02F052F861684904490E48437B
:101480006168490F491C02F049F810BD2068084006
:10149000202802D10120C00310BD20680840182870
:1014A00001D0002010BD7D20000210BD08100240B8
:1014B00000127A000024F400F0B587B0012500285E
:1014C00000D1ECE1049505900078C007F94F2AD0CF
:1014D000B868F96803252A468A433821014010205C
:1014E0004840821850425041082914D0002812D197
:1014F00005984268012001048A4208D005231B0494
:101500009A4200D0DAE082043B6813433B603A68B9
:101510000A433A60DBE03868800304D505984068E8
:10152000002800D173E105980078800723D405983E
:10153000007800070CD5B86838210140182971D10E
:10154000386E800704D505988069002800D15EE1D7
:10155000059A1078400700D42EE1B8683821014080
:10156000202974D1F86D800700D425E19068002807
:1015700000D021E14BE1B9683820084010214140FA
:10158000FA6803252A4002235340CA1851425141A8
:10159000002820D000291ED13868059AD16800297A
:1015A00000D1A2E00721C9028843116901433960D3
:1015B000012001023A680A433A608402FFF7DCF92D
:1015C00006463868204200D0A1E0FFF7D5F9801B1D
:1015D0000228F6D963E139684905059B03D5D96826
:1015E000002900D113E17F2109027A688A435969F1
:1015F00009021143796000280DD10720C002396823
:10160000814318690843386038688004400FAA494C
:10161000C140AA480160AA480068FFF797FC00286B
:1016200085D0F4E0386E05998969002979D00121C7
:1016300008433866FFF7A0F90646386E800787D45E
:10164000FFF79AF9801B03250228F6D927E101202C
:1016500003900107F86B0840029006D1F86B08432D
:10166000F863F86B08400690069801919548006869
:10167000C00513D403980402924908682043086007
:10168000FFF77AF906468F480068204206D1FFF737
:1016900073F9801B03250228F5D900E105988068BD
:1016A000894C012805D005285AD1F86D0421014341
:1016B000F965F86D03990843F8655BE03B688B4377
:1016C0003B6081043B688B433B60002A3AD0440472
:1016D000FFF752F906463868204200D023E7FFF7AB
:1016E0004BF9801B6428F6D9D9E001210A02904306
:1016F00038608C02FFF740F906463868204200D176
:1017000015E7FFF739F9801B0228F6D9C7E07F20DB
:1017100000027968814305984069000208437860B7
:1017200005E7012188433866FFF726F90646386E3B
:10173000800700D40CE7FFF71FF9801B0325022860
:10174000F5D9ACE04404FFF717F9064638682042A3
:1017500000D1E8E6FFF710F9801B6428F6D99EE077
:10176000F96D039A9143F965F96D04229143F96586
:1017700000280CD0FFF700F90646F86D800713D457
:10178000FFF7FAF8801B0325A042F6D987E0FFF7A0
:10179000F3F80646F86D800706D5FFF7EDF8801BD5
:1017A0000325A042F6D97AE002980028059A03D1D1
:1017B000F86B01998843F863D469002C76D0B86837
:1017C00038210140102926D1012C20D0F8680321AE
:1017D0000140059B1A6A914219D1702101405A6A51
:1017E000914214D17F21090201409A6A120291426A
:1017F0000DD11F2149040140DA6A9142049D4ED166
:10180000072149070840196B884248D14EE0049DE2
:10181000284607B0F0BD01252906386804918843A1
:101820003860FFF7A9F80646022C0BD103956C0629
:101830003868204211D0FFF79FF8801B032502284B
:10184000F6D92CE06C06386820422BD0FFF794F8CC
:10185000801B03250228F6D921E0F8681C490140C5
:10186000059E20366DCE08431043190201432943DB
:101870003143F960386804990843386003980007D9
:10188000F9680143F960FFF777F8064638682042A7
:101890000CD1FFF771F8801B03250228F6D92846E2
:1018A00007B0F0BDF86809490140F96000252846F5
:1018B00007B0F0BD001002400024F4000800002032
:1018C000040000200070004088130000FCFFFEEFC1
:1018D0008C80C11F5D21405C70470000F0B585B071
:1018E00000280CD0044605465C3541208600606A1D
:1018F000002807D0002020612046143007E0012096
:1019000005B0F0BD6068B04203D020461C30002115
:1019100001600027A7626878002804D100202870A1
:10192000204600F059F80220049501906870206864
:1019300001684022914303900160E168254A012536
:1019400091422A4600D33A461203ED020D430F2777
:1019500038020290854201D00025A5626568A7681B
:10196000354021239B023B405B19256901980540C6
:101970001D436069012318402843FC36A7693E4097
:101980000643E069382505403543206A8026064035
:101990002E435803A56A05403543039E3560380C35
:1019A00004250540029801400A432A43606A102139
:1019B00001401143606B082202400A437260D80262
:1019C000F1698143F1610020206604994B7005B0F4
:1019D000F0BDC0460107000080B586B0006812491E
:1019E000884201D006B080BD012001030F4AD368B0
:1019F0000B43D360D3680B400193019911680143F5
:101A0000116011680140009100200590049003903E
:101A100002200290E020019005200007009901A912
:101A2000FEF7C0FE06B080BD003001403410024019
:101A3000F0B587B017460E460546412081002C467A
:101A400044346868884203D1A868002800D185E042
:101A5000207E012802D1022007B0F0BD03A88AC071
:101A600001272776FEF788FF0690607E012873D154
:101A7000002E3846059900D1E1E00029384600D112
:101A8000DDE0029704206076002028666180E88708
:101A90002E642180A887A863E864286507210902CD
:101AA000EA68012305918A421E4600D9064636039C
:101AB0001F0328684168B94389194160D903AB689D
:101AC0008B4208D1016840239943016001218903B9
:101AD00003688B43036001684906049E039F03D497
:101AE000016840230B4303600599491C8A4240D298
:101AF000618800296ED0711C1BD08168C90706D18E
:101B0000FEF73AFF0699401AB04209D39CE0007BE9
:101B1000296C0870286C401C28646088401E608016
:101B20006088002856D028688168C907E8D0EEE7A9
:101B300028688168C90702D1FEF71EFF08E0007B14
:101B4000296C0870286C401C28646088401E6080E6
:101B500060880028ECD13DE0022070E0042060762F
:101B600000932846314632463B4600F079F907B0EB
:101B7000F0BD618800292DD0711C1AD08168C90779
:101B800006D1FEF7F9FE0699401AB04208D35BE091
:101B9000296CC0680880881C28646088401E6080AA
:101BA0006088002816D028688168C907E9D0EFE767
:101BB00028688168C90702D1FEF7DEFE07E0296CBC
:101BC000C0680880881C28646088401E6080608827
:101BD0000028EDD16868B8420CD1A8680121CA0379
:101BE000904202D08902884204D1286801684022CC
:101BF0009143016028463146069A00F073FF0028A1
:101C000005D0286E202108432866296613E06868FD
:101C1000B84210D1A8680121CA03904202D08902BB
:101C2000884208D10320410228463246069B00F034
:101C3000A9FE0028E5D1286E411E8841029F00219F
:101C40002176677607B0F0BD0320F7E7F0B587B0DF
:101C500004465C20205C012803D10227384607B0E7
:101C6000F0BD1546059103932746443701263E767D
:101C7000FEF782FE39460290787E012877D10598DA
:101C800000283746324600D1E1E0002D174600D14A
:101C9000DDE0049203274F7600202066E587A587C4
:101CA000059AA26320640880E06420650191009099
:101CB000488020680121CA03A368934207D10268C3
:101CC00040239A430260890302680A430260016864
:101CD0004906039E03D4016840220A4302606168FA
:101CE0004A424A416B1E594259411143E2685B4BDB
:101CF0009A423FD3002907D0059A1188C160911CF0
:101D0000A163E18F491EE187E18F0029029D70D018
:101D1000711C1AD08168890706D4FEF72DFE049A3B
:101D2000401BB04208D34DE0A16B0A88C260881CFA
:101D3000A063E08F401EE087E08F002859D0206824
:101D400081688907E9D5EFE720688168890702D4AF
:101D5000FEF712FE07E0A16B0A88C260881CA06330
:101D6000E08F401EE087E08F0028EDD141E00227A0
:101D700032466CE0002908D0059909780173A06B00
:101D8000401CA063E08F401EE087E08F0028029D8A
:101D90002FD0701C0CD11CE0A16B09780173A06BD3
:101DA000401CA063E08F401EE087E08F002820D019
:101DB000206881688907EFD4FEF7DEFD049A401B96
:101DC000B042F2D3019942E0FEF7D6FDE08F002841
:101DD0000FD0206881688907F6D5A16B0978017357
:101DE000A06B401CA063E08F401EE087E08F0028BE
:101DF000EFD12F460325E902204632463B4600F04C
:101E0000C1FD00280ED1204631463A4600F06AFE58
:101E1000002807D16902204632463B4600F0B2FD59
:101E2000002804D0206E2021084320662166A06887
:101E3000002807D1009806902068C1680691806844
:101E400006900698276E781E87410199049A002013
:101E500008764A76384607B0F0BDC0460107000054
:101E6000F0B585B004465C20205C012802D1022038
:101E700005B0F0BD1D460292039127464437012666
:101E80003E76FEF779FD32460646797E012900D07E
:101E9000ABE003980028104600D148E102980028E2
:101EA000104600D143E1002D104600D13FE10192E0
:101EB000787E042801D005207876002323667D8073
:101EC000E587E1689D4A012000919142024600D3D6
:101ED0001A46049616030103206842688A43911942
:101EE0004160029921643D800399A163E364236505
:101EF000A5870168490603D4016840220A430260AD
:101F00000A9E61684A424A41691E4B424B41134353
:101F100000998A4A914279D3002B07D0039A1188FD
:101F2000C160901CA063E08F401EE0870125701CFB
:101F300032D101E0FEF720FDE08F002803D1788840
:101F4000002800D1CFE02068816889070DD5E18F96
:101F500000290AD0012D08D1A16B0A88C260891C12
:101F6000A163E18F491EE18700258168C907E1D09F
:101F700079880029DED0216CC0680880881C206424
:101F80007888401E78800125D4E7FEF7F5FC049997
:101F9000401AB04200D3C8E0E08F002803D178880F
:101FA000002800D19FE02068816889070DD5E18F66
:101FB00000290AD0012D08D1A16B0A88C260891CB2
:101FC000A163E18F491EE18700258168C907DCD044
:101FD00079880029D9D0216CC0680880881C2064C9
:101FE0007888401E78800125CFE701924120820049
:101FF00063680220934200D098E0A268002A00D0D3
:1020000094E00429019A00D143E790E0002B08D026
:10201000039909780173A06B401CA063E08F401EF8
:10202000E0870125701C33D101E0FEF7A5FCE08FAD
:10203000002802D17888002855D020688168890757
:102040000FD5E18F00290CD0012D0AD1A16B0978A1
:102050000173A06B401CA063E08F401EE0872068E6
:1020600000258168C907E0D079880029DDD0007B90
:10207000216C0870206C401C20647888401E788099
:102080000125D2E7FEF778FC0499401AB0424CD201
:10209000E08F002802D17888002824D02068816849
:1020A00089070FD5E18F00290CD0012D0AD1A16B32
:1020B00009780173A06B401CA063E08F401EE0878D
:1020C000206800258168C907DCD079880029D9D02B
:1020D000007B216C0870206C401C20647888401EB6
:1020E00078800125CEE703200390C10220463246C6
:1020F000049D2B4600F046FC00280FD120463146B7
:102100002A4600F0EFFC002808D10398410220463F
:1021100032462B4600F036FC00280DD0206E2021E0
:10212000084320662166012000E00320019A002177
:1021300039767A7605B0F0BD0020F7E70107000098
:10214000401E010E01D0012070470749074A506028
:10215000074803680B4003218907591801600020D4
:102160009060072111607047FFFFFF0010E000E062
:1021700020ED00E0B0B58021415C012901D10220B1
:10218000B0BD024680322421516001680B680C68A2
:102190000125AC430C606C07A3430B600021416632
:1021A0001170202050600846B0BD0000F0B581B02D
:1021B0008022825C012A02D1022001B0F0BD0546D6
:1021C00068352422EA610668376832680124A24330
:1021D000326007225206B36893430B43B360406EEC
:1021E0000028204615D00097B768B068400F2B49EB
:1021F000095C2B4A105CC00001F090F904463801DC
:10220000009F400F2549095C254A105CC00001F081
:1022100085F928806C803760002028762021E961CC
:1022200001B0F0BDF0B581B08022825C012A02D1FC
:10223000022001B0F0BD054668352422EA61066837
:10224000376832680124A243326007225207B3681C
:1022500093430B43B360406E0028204615D000978F
:10226000B768B068400F0D49095C0D4A105CC000AA
:1022700001F054F904463801009F400F0749095CFA
:10228000074A105CC00001F049F928806C80376073
:10229000002028762021E96101B0F0BD0038000857
:1022A000F8370008F0B583B0002841D0044607464F
:1022B00080377868002804D100203870204600F06C
:1022C00057F824207860206801680125A94301603F
:1022D000204600F027FD012827D0A06A002802D060
:1022E000204600F0B5FC0920C00221684A688243FC
:1022F0004A6088682A229043886008680126304333
:1023000008600025FD60FEF737FB03462068016882
:10231000090713D515480090710500222046029345
:1023200000F0B6FD002807D00325284603B0F0BD15
:102330000125284603B0F0BD2068029B00684007D5
:102340000CD50A480090B1050022204600F0A0FDFF
:10235000002803D00325284603B0F0BD2020786074
:10236000B8603D70E566284603B0F0BDFFFFFF0191
:1023700080B586B000681349884201D006B080BDA0
:102380001148C268012105918B031A43C260C268DB
:102390001A400092009A02680A43026000680840EE
:1023A000009000200490039002200290032040023D
:1023B000019005200007009901A9FEF7F3F906B086
:1023C00080BDC0460038014034100240F0B587B0EF
:1023D0000E460446842021580220202911D10125CF
:1023E000002E19D00492002A16D001210D03A268F4
:1023F000AA420AD1F20708D02269002A05D10D4667
:102400000AE00546284607B0F0BD03952746803709
:102410003A78012A054602D1284607B0F0BD059357
:102420003A46274654370025D56011702120029284
:102430005060FEF7A1FA0690049878803880A06872
:10244000039988420AD120690028049601D000210E
:1024500004910028059903D1064601E004950599E9
:10246000029805700CE0049A108819490840216808
:102470008862921C04922E4605997888401E7880C6
:102480007888002810D000918021002520462A4617
:10249000069B00F0FDFC002810D1002EE3D0307820
:1024A00021688862761CE7E70091402100252046DC
:1024B0002A46069B00F0ECFC002803D003252846A2
:1024C00007B0F0BD202002994860284607B0F0BD53
:1024D000FF010000FEE70000F0B585B00446403083
:1024E00004902768B869C00606D400200646012378
:1024F000BA69D5055ED472E01020F861B86980062B
:1025000065D4481C4AD016460391012001908003EF
:10251000029004E0B869202202402A4342D1FEF72B
:102520002BFA276800250399002902D0801B8842D6
:10253000F0D97A6804988078BB691B040CD502999D
:102540000A4009D1202807D07868029908437860AA
:10255000FEF712FA06462768B8698006DAD4002525
:1025600003E02768B8698006D4D4FEF705FA801B1B
:102570001A28F6D3606C202108436064049A5170D5
:102580000020107090700125EBE7B86980061ED41A
:10259000B86980061BD4B869800618D4B86980066B
:1025A000F3D514E0002D12D00420019E0123BA6956
:1025B000D50514D51D02FD61184301935D02560532
:1025C00011D59B02FB6108302A4214D116E020206D
:1025D000F861012604200123BA69D505EAD40196E1
:1025E0005D025605EDD42A4205D1019A002A05D193
:1025F000002005B0F0BDFD6102221043BA699207C8
:1026000001D50022BA62BA69D20703D1BA6901239F
:102610001343BB617A68334B13407B60616C0143A9
:10262000616420200499487000200870887001209F
:1026300005B0F0BDF0B581B01546044607464037F9
:10264000002915D00E4620688069400730D4204606
:1026500031462A46FFF740FF002814D120688169DF
:1026600089061FD4FEF788F9401BB042EBD913E06E
:102670002068806940071BD4002120462A46FFF7C6
:102680002BFF002802D0012001B0F0BD2068816935
:10269000890607D4FEF770F9606C20210843606456
:1026A000797019E08169490705D5218D002902D08B
:1026B000002001B0F0BD82690021D2060A4602D591
:1026C0001022C261042262642022C2614368054C68
:1026D0001C4044607A70B97000203870012001B04D
:1026E000F0BDC04600E800FEF0B581B004460068C9
:1026F00080690025800711D416460F46002921D095
:10270000781C17D10025E94320463246FFF7E4FE46
:1027100000281ED1206880698007F3D5284601B0C3
:10272000F0BDFEF729F9801BB84218D820688069EF
:102730008007F3D4204639463246FFF7CDFE002805
:10274000EFD006E0002120463246FFF7C5FE002804
:1027500003D00125284601B0F0BDFEF70DF9204653
:102760004030616C2022114361644270002101708D
:1027700081700125284601B0F0BD0000F0B589B098
:10278000002408943948016820221143016001683F
:1027900011400391039901680125294301600168F3
:1027A00029400391039901680222029211430160BA
:1027B00001681140039103990168082631430160C3
:1027C0000068304003900398052000070190182707
:1027D00039462A46FEF7C8F8254829462246FEF71C
:1027E000C3F8244831462A46FEF7BEF80720C10147
:1027F00020482246FEF7B8F803260796069405956A
:10280000049704AF01983946FDF7CCFF0694059470
:102810000298049017483946FDF7C4FF07960694BE
:102820000595049512483946FDF7BCFF0694212012
:1028300000040590042004900D483946FDF7B2FFCE
:102840000796069405957120C00004900948394602
:10285000FDF7A8FF0626304629462246FEF7BAFBBA
:102860003046FEF7ABFB09B0F0BDC0463410024065
:10287000000C00500004005010B512480021012245
:10288000114B124C046043608160C2600161416180
:102890008161C1610162FEF7B9F8002801D0FDF73E
:1028A00053FF08480021FEF76DF8002801D0FDF71E
:1028B0004BFF04480021FEF787F8002801D0FDF700
:1028C00043FF10BD94000020BC7D701000580040F4
:1028D000B0B50F48082200210723016241628162DE
:1028E000C3620163426310220A4C1B024125AD0002
:1028F00030C0FC35016043608160C16005614261A8
:102900000838FEF7EBFF002801D0FDF71DFFB0BD32
:10291000E00000200030014010B5174800210C22D3
:10292000164B016241628162E124640218C00160B9
:1029300041608160C260016141610838FFF7B2FC0B
:10294000002801D0FDF700FF0B480021FFF76AFCCB
:10295000002801D0FDF7F8FE07480021FFF726FC0C
:10296000002801D0FDF7F0FE0348FFF703FC002824
:1029700001D0FDF7E9FE10BD440100200038014000
:10298000FEE77047F0B587B0049314460E4605463F
:1029900005A800270770FDF7EFFF0499081A0294B5
:1029A0000419FDF7E9FF04908148006823214143A1
:1029B000080D6043069003952D68A868304233D017
:1029C000019703214F020298401C30D0BE42009173
:1029D0001CD104E0039800688068384245D0287B09
:1029E00005A908700598FDF7C7FF0499401AA04291
:1029F0003ED206980699491E06910028EAD104465F
:102A0000E8E703980068806830422ED0FDF7B4FFF5
:102A10000499401AA0422BD206980699491E0691A5
:102A20000028EED10446ECE7384607B0F0BDBE42C0
:102A300047D1287B05A908700598A868384214D0AA
:102A4000287B05A908700598A86838420DD0287B16
:102A500005A908700598A868384206D0287B05A902
:102A600008700598A8683842E3D1019807B0F0BD16
:102A7000039C20684168E022914341604121890024
:102A800062688A420BD1A1680122D303994202D025
:102A90009202914203D101684022914301600121D9
:102AA0004A03A36A5C34934205D1036893430360ED
:102AB000036813430360002020706170009807B022
:102AC000F0BD0199A868304208D0A868304205D00E
:102AD000A868304202D0A8683042F3D1084607B057
:102AE000F0BDC046F0B583B015460F460446FDF76D
:102AF00043FF281AC519FDF73FFF06462C4800681A
:102B00004001000D68430290226891680020090688
:102B100022D5791C1DD0019027465C3703E0206840
:102B20008068000641D5FDF727FF801BA84215D21B
:102B300002980299491E02910028F0D10546EEE75D
:102B40009168090608D59168090605D591680906B6
:102B500002D591680906F3D403B0F0BD206841683E
:102B6000E022914341604121890062688A420BD191
:102B7000A1680122D303994202D09202914203D16B
:102B8000016840229143016001214A03A36A9342F4
:102B900005D1036893430360036813430360002077
:102BA00038707970032003B0F0BD019803B0F0BD18
:102BB00008000020704780B5FEF7A8F980BD70B509
:102BC00098B00025119510950F950E950D950C95C3
:102BD00006950595049503950295019501267002C9
:102BE000FEF718FA700717907004169008201590D9
:102BF0001495022413941294402010900F953002E3
:102C00000E900B940BA8FEF757FC002803D0EFF3AF
:102C1000108072B6FEE70A95099507200790089480
:102C200007A82146FEF7F4FA002803D0EFF310803E
:102C300072B6FEE70295019601A8FEF72BFA00286E
:102C400003D0EFF3108072B6FEE718B070BD704786
:102C5000B0B5816ACA070CD18A0714D44A071CD4BC
:102C60000A0724D4CA062CD48A0634D44A063CD493
:102C70004CE00122520403685C689443C26A224318
:102C80005A608A07EAD50122120403685C689443FB
:102C9000026B22435A604A07E2D50122920403687C
:102CA0005C689443426B22435A600A07DAD50122DA
:102CB000D20303685C689443826B22435A60CA065D
:102CC000D2D50122120303689C689443C26B22434D
:102CD0009A608A06CAD50122520303689C6894430D
:102CE000026C22439A604A0610D50122130502683D
:102CF00054689C43456C2C4354609D4206D1032389
:102D00005B0554689C43836C23435360090607D5D5
:102D10000121C904026853688B43C06C184350609A
:102D2000B0BD0000F0B581B00446006801684B4BAF
:102D30000B40A16822690A4361691143E2691143AA
:102D4000194301600321090343688B43E168194378
:102D50004160A169236A0B438168414D0D401D43C9
:102D60008560C36A0F218B43616A0B43C3623D4B8D
:102D7000984209D03C4B984208D13C4800688007F3
:102D8000000F3BA31F5802E0002700E01027264653
:102D900068360125EB033A489A4210D1082F55D8DE
:102DA0007F443F797F00BF44045123511C5151514E
:102DB0002200FEF72BFB002817D0616A18E0082FCD
:102DC00044D8C0467F443F797F00BF44043F2D3F35
:102DD000263F3F3F2C00FEF719FB002821D0616AF7
:102DE00022E0FEF725FB0028E7D100252EE018465B
:102DF0004900244A515A00F091FB400061684A089A
:102E0000101800F08BFB0246103A1F498A421DD26F
:102E100001400007400F084315E0FEF709FB0028BA
:102E2000DDD1002512E018464900164A515A00F03B
:102E300075FB61684A08101800F070FB01461039F4
:102E4000114A914202D22168C86000250F483060C3
:102E5000002020676067284601B0F0BDF369FFCF0E
:102E6000FFF4FF11004400400038014054100240BC
:102E70000000000004000000020000000800000044
:102E80000024F400BC370008F0FF0000010001003E
:102E9000F0B587B015460E4604460768F96931401B
:102EA000891B4A424A410020AA4224D10693049435
:102EB000224680320C9C002C1FD0611C44D1F96941
:102EC0003140891B4A424A41AA4214D1F969314032
:102ED000891B4A424A41AA420DD1F9693140891BF6
:102EE0004A424A41AA4206D1F9693140891B4A4205
:102EF0004A41AA42E3D007B0F0BD0392FDF73CFD82
:102F0000049FEFF31081012080F310880D225201FD
:102F10003B681C6894431C6081F31088EFF31081B8
:102F200080F310883A6893688343936081F3108834
:102F30002020039A50601046083000211170202193
:102F40000160032007B0F0BD0392029001200190C0
:102F5000C0020590049F06E0C0693040801B4142DA
:102F60004141A9422DD1FDF707FD0699401AA04223
:102F7000C7D8386801684907EED5C169059A11427A
:102F8000EAD005990162EFF31080019C84F3108868
:102F90000D2149013A6813688B43136080F3108850
:102FA000EFF3108084F3108839688A68A2438A603E
:102FB00080F310882020039A5060906010460C30F7
:102FC000BBE7029807B0F0BDF0B585B0044600201D
:102FD0000390029004AA022010707D2087000097C1
:102FE000774DB426012328463146FDF759FE009758
:102FF00002AF0423284631463A46FDF75BFD0298AE
:1030000040BA2080788840BA608005B0F0BDC046E4
:10301000F0B583B002AA10707D24A700009768481D
:10302000B425012629463346FDF73AFE009701AF45
:10303000634829463A463346FDF73CFD3A78614DF0
:1030400061492846FDF73EF92846FDF775FAE30089
:1030500082B25E482946FFF7B9F903B0F0BDC04619
:10306000F0B583B002AA002010707D208700009781
:10307000534CB4250126204629463346FDF710FE61
:10308000009701AF204629463A463346FDF712FD28
:10309000387803B0F0BDC046F0B58BB006AAF42076
:1030A00010707D20029085000095454EB4270124C4
:1030B000304639462346FDF7F3FD6420FDF748FB13
:1030C00007AA00200190107000953046394623462B
:1030D000FDF7E6FD0395009504AD304639462A46D6
:1030E0002346FDF7E7FC2A78364E37493046FDF790
:1030F000E9F83046FDF720FA0299CB0082B2334856
:1031000031460293FFF762F92878002822D008AAF6
:10311000E0201070039C00942948B4260127314612
:103120003B46FDF7BDFD009404AD254831462A46D7
:103130003B46FDF7BFFC2A78224D25A12846FDF726
:10314000C1F82846FDF7F8F982B220482946029BCB
:10315000FFF73CF909AA20201070039E0096184F33
:10316000B4240125384621462B46FDF799FD0096EB
:1031700005AE3846214632462B46FDF79BFC327899
:10318000104C17A12046FDF79DF82046FDF7D4F915
:1031900082B20E482146029BFFF718F93078812849
:1031A0000CD10AAA102050701570019890700398E5
:1031B00000900348B4210223FDF772FD0BB0F0BD6F
:1031C00094000020D40100200838000844010020A9
:1031D0006572726F723A20253032780D0A00000055
:1031E00068775F69643A20253032780D0A00000064
:1031F000F0B581B0044600680188406800252A4681
:10320000FDF7B2FB0A273846FDF7A2FA20680188CD
:10321000406801263246FDF7A7FB3846FDF798FACD
:103220004221204600F054F812284AD1012680227B
:103230002046314600F081F82079C00022490A5822
:10324000530B08184068C004C118D0041F4A2B460D
:10325000FCF7B0FF0746000CC2B20621204600F082
:103260006CF8380AC2B20721204600F066F8FAB2BC
:103270000821204600F061F80E2120462A4600F081
:103280005CF80F2120462A4600F057F80C2720460C
:10329000394600F01DF8032202432046394600F06B
:1032A0004CF826210422204600F047F809218F22FD
:1032B000204600F042F881222046314600F03DF8D9
:1032C0002E46304601B0F0BDD83700080048E8016E
:1032D00070B582B004467F20084001AE3070684669
:1032E0000022027021684869098AFDF73DFB2068C9
:1032F00080697D21CD00012231462B46FEF7A6FCD8
:1033000020688069FEF7E6FA0128F9D12068806913
:10331000694601222B46FEF78BFB20688069FEF789
:10332000D9FA0128F9D12068018A40690122FDF704
:103330001BFB6846007802B070BD70B582B00446D1
:1033400001A80270802008436E46307021684869E9
:10335000098A0022FDF708FB206880697D21CD00E5
:10336000012231462B46FEF771FC20688069FEF78A
:10337000B1FA0128F9D12068806901A901222B4600
:10338000FEF764FC20688069FEF7A4FA0128F9D1F1
:103390002068018A40690122FDF7E6FA02B070BD9B
:1033A00094B0FDF7BDFDFFF70AFCFFF7E7F9FFF763
:1033B00063FAFFF78DFAFFF7AFFA404D10200521B1
:1033C00009073F4A2B46183307C30820A860E96065
:1033D0000020287128460830286004AE30461A3094
:1033E0002621FDF7E7F837A031461CC81CC11CC8D0
:1033F0001CC1008808803046FDF79EF87D21CC0076
:1034000082B2374831462346FEF7E0FF2846FFF7F1
:10341000EFFE00281BD0324D284E04AF0A20B881A1
:103420003048069030480590304804903846FDF703
:1034300083F882B2284639462346FEF7C7FF204666
:10344000FDF786F93046FFF7D3FE0028E5D128A026
:1034500004AE3146ACC8ACC1007808703046FDF708
:103460006BF882B21E4D284631462346FEF7AEFF6A
:10347000FFF712FEE020FFF7CBFD0120FFF7C8FDAC
:1034800020A6FFF7EDFD0007FBD56F463846FFF796
:103490009BFD7B883A8804AF38463146FCF712FF23
:1034A0003846FDF749F882B2284639462346FEF7EA
:1034B0008DFF2046FDF74CF9E3E7C0467000002081
:1034C000E0000020436F6E6669677572696E672061
:1034D0004C6F5261206D6F64756C650D0A000000C1
:1034E000440100206C65640D204661694C6F526197
:1034F0004C6F526120696E697420646F6E650D0AAD
:103500000000000065434F323A2025642C20747679
:103510006F633A2025640D0A0000000043088B42C7
:103520001AD3002203098B4279D3030A8B425ED35C
:10353000030B8B4242D3030C8B4227D30902FF2299
:1035400012BA030C8B4202D31212090203D0030BEE
:103550008B4233D31AE0D3E0411A8041401C7047BC
:1035600003460B4371D443088B42F5D30022030971
:103570008B4254D3030A8B4239D3030B8B421DD3A6
:10358000030C8B4202D394466EE0090AC30B8B42B4
:1035900001D3CB03C01A5241830B8B4201D38B035F
:1035A000C01A5241430B8B4201D34B03C01A524104
:1035B000030B8B4201D30B03C01A5241C30A8B4247
:1035C00001D3CB02C01A5241830A8B4201D38B0232
:1035D000C01A5241430A8B4201D34B02C01A5241D6
:1035E000030A8B4201D30B02C01A5241CDD2C30948
:1035F0008B4201D3CB01C01A524183098B4201D3C4
:103600008B01C01A524143098B4201D34B01C01AAE
:10361000524103098B4201D30B01C01A5241C30826
:103620008B4201D3CB00C01A524183088B4201D395
:103630008B00C01A524143088B4201D34B00C01A81
:103640005241411A524110007047CA0F00D04942FE
:10365000031000D34042534000229C4603098B4292
:103660002DD3030A8B4212D38901FC2212BA030A1A
:103670008B420CD3890192118B4208D3890192119C
:103680008B4204D3890137D0921100E08909C30924
:103690008B4201D3CB01C01A524183098B4201D323
:1036A0008B01C01A524143098B4201D34B01C01A0E
:1036B000524103098B4201D30B01C01A5241C30886
:1036C0008B4201D3CB00C01A524183088B4201D3F5
:1036D0008B00C01A5241D9D243088B4201D34B0010
:1036E000C01A5241411A00D2014652411046634667
:1036F0005B1000D34042704763465B1000D34042EA
:1037000001B50021004201D0C9430846C046C04669
:1037100002BD30380A2801D20120704700207047CE
:1037200030313233343536373839414243444546F7
:1037300040305800303132333435363738396162F1
:1037400063646566403078000400000800000000F3
:103750000000000200010000100000000000000056
:103760000000000000000000000000000000000059
:103770000000000000000000000000000100000048
:10378000020000000300000004000000060000002A
:103790000700000008000000090000000000000011
:1037A0000000000000000000000000000100000018
:1037B00002000000030000000400000001000200FD
:1037C0000400060008000A000C0010002000400061
:1037D0008000000100000000400ECF190000000032
:1037E00040DA8E3300000000801C9E330000000091
:1037F000C05EAD33000000000101010307010000BD
:1038000008040204080101017374617475733A209D
:10381000253032780D0A00003838000800000020FA
:1038200010000000040100084838000810000020C3
:103830003008000020010008010000000400000022
:083840000024F4000000000068
:04000005080000C12E
:00000001FF
